Component: ARM Compiler 5.05 update 1 (build 106) Tool: armlink [4d0efa]

==============================================================================

Section Cross References

    main.o(.text) refers to memseta.o(.text) for __aeabi_memclr4
    main.o(.text) refers to I2C.o(i._ZN4mbed3I2C5writeEiPKcib) for mbed::I2C::write(int, const char*, int, bool)
    main.o(.text) refers to I2C.o(i._ZN4mbed3I2C4readEiPcib) for mbed::I2C::read(int, char*, int, bool)
    main.o(.text) refers to f2d.o(.text) for __aeabi_f2d
    main.o(.text) refers to printfa.o(i.__0printf) for __2printf
    main.o(.text) refers to pwmout_api.o(i.pwmout_period_ms) for pwmout_period_ms
    main.o(.text) refers to pwmout_api.o(i.pwmout_pulsewidth_ms) for pwmout_pulsewidth_ms
    main.o(.text) refers to I2C.o(i._ZN4mbed3I2CC1E7PinNameS1_) for mbed::I2C::I2C(PinName, PinName)
    main.o(.text) refers to pwmout_api.o(i.pwmout_init) for pwmout_init
    main.o(.text) refers to main.o(.bss) for HTS221
    main.o(.text) refers to main.o(.data) for temper
    main.o(.ARM.exidx) refers to main.o(.text) for .text
    main.o(.init_array) refers to main.o(.text) for __sti___8_main_cpp_HTS221
    main.o(.init_array) refers to cpp_init.o(.text) for __cpp_initialize__aeabi_
    stm32f4xx_hal_dma.o(i.HAL_DMA_Abort) refers to stm32f4xx_hal.o(i.HAL_GetTick) for HAL_GetTick
    stm32f4xx_hal_dma.o(i.HAL_DMA_PollForTransfer) refers to stm32f4xx_hal.o(i.HAL_GetTick) for HAL_GetTick
    stm32f4xx_hal_pcd.o(i.HAL_PCD_DeInit) refers to stm32f4xx_ll_usb.o(i.USB_DisableGlobalInt) for USB_DisableGlobalInt
    stm32f4xx_hal_pcd.o(i.HAL_PCD_DeInit) refers to stm32f4xx_ll_usb.o(i.USB_StopDevice) for USB_StopDevice
==============================================================================

Removing Unused input sections from the image.

    Removing main.o(.rev16_text), (4 bytes).
    Removing main.o(.revsh_text), (4 bytes).
    Removing main.o(.ARM.exidx), (8 bytes).
    Removing stm32f4xx_hal_dma.o(.rev16_text), (4 bytes).
    Removing stm32f4xx_hal_dma.o(.revsh_text), (4 bytes).
    Removing stm32f4xx_hal_dma.o(i.HAL_DMA_Abort), (92 bytes).
    Removing stm32f4xx_hal_dma.o(i.HAL_DMA_DeInit), (1976 bytes).
    Removing stm32f4xx_hal_dma.o(i.HAL_DMA_GetError), (4 bytes).
    Removing stm32f4xx_hal_dma.o(i.HAL_DMA_GetState), (6 bytes).
    Removing stm32f4xx_hal_dma.o(i.HAL_DMA_IRQHandler), (4644 bytes).
    Removing stm32f4xx_hal_dma.o(i.HAL_DMA_Init), (140 bytes).
    Removing stm32f4xx_hal_dma.o(i.HAL_DMA_PollForTransfer), (4940 bytes).
    Removing stm32f4xx_hal_dma.o(i.HAL_DMA_Start), (94 bytes).
    Removing stm32f4xx_hal_dma.o(i.HAL_DMA_Start_IT), (144 bytes).
    Removing stm32f4xx_hal_pcd.o(.rev16_text), (4 bytes).
    Removing stm32f4xx_hal_pcd.o(.revsh_text), (4 bytes).
    Removing stm32f4xx_hal_pcd.o(i.HAL_PCD_ActiveRemoteWakeup), (30 bytes).
    Removing stm32f4xx_hal_pcd.o(i.HAL_PCD_ConnectCallback), (2 bytes).
==============================================================================

Image Symbol Table

    Local Symbols

    Symbol Name                              Value     Ov Type        Size  Object(Section)

    ../../../edgfe/lib_src/arm_exceptions.c  0x00000000   Number         0  arm_exceptions_support.o ABSOLUTE
    ../../../edgfe/lib_src/arm_exceptions.c  0x00000000   Number         0  arm_exceptions_globs.o ABSOLUTE
    ../../../edgfe/lib_src/arm_exceptions.c  0x00000000   Number         0  arm_exceptions_terminate.o ABSOLUTE
    ../../../edgfe/lib_src/arm_exceptions.c  0x00000000   Number         0  arm_exceptions_mem.o ABSOLUTE
    ../../../edgfe/lib_src/arm_exceptions.c  0x00000000   Number         0  arm_exceptions_callterm.o ABSOLUTE
    ../../../edgfe/lib_src/arm_noexceptions.c 0x00000000   Number         0  arm_begincatch_noexceptions.o ABSOLUTE
    ../../../edgfe/lib_src/arm_noexceptions.c 0x00000000   Number         0  arm_callunex_noexceptions.o ABSOLUTE
    ../../../edgfe/lib_src/arm_noexceptions.c 0x00000000   Number         0  arm_newhandler_noexceptions.o ABSOLUTE
    ../../../edgfe/lib_src/bad_alloc.c       0x00000000   Number         0  bad_alloc_what.o ABSOLUTE
    ../../../edgfe/lib_src/bad_alloc.c       0x00000000   Number         0  bad_alloc_dtor.o ABSOLUTE
    ../../../edgfe/lib_src/delete.c          0x00000000   Number         0  delete.o ABSOLUTE
    ../../../edgfe/lib_src/exception.c       0x00000000   Number         0  exception_dtor.o ABSOLUTE
    ../../../edgfe/lib_src/exception.c       0x00000000   Number         0  exception_what.o ABSOLUTE
    ../../../edgfe/lib_src/new.c             0x00000000   Number         0  new.o ABSOLUTE
    ../../../edgfe/lib_src/pure_virt.c       0x00000000   Number         0  pure_virt.o ABSOLUTE
    ../../../edgfe/lib_src/typeinfo.c        0x00000000   Number         0  lib_rtti_impl.o ABSOLUTE
    ../../../edgfe/lib_src/typeinfo.c        0x00000000   Number         0  type_info_dtor.o ABSOLUTE
    ../clib/microlib/cpp/cpp_init.c          0x00000000   Number         0  cpp_init.o ABSOLUTE
    ../clib/microlib/cpp/cpp_init.c          0x00000000   Number         0  cpp_init.o ABSOLUTE
    ../clib/microlib/cpp/cpp_memory.c        0x00000000   Number         0  cpp_memory.o ABSOLUTE
    ../clib/microlib/cpp/cpp_signal.c        0x00000000   Number         0  cpp_signal.o ABSOLUTE
    ../clib/microlib/cpp/cpp_unwinder.c      0x00000000   Number         0  cpp_unwinder.o ABSOLUTE
    ../clib/microlib/ctype/ctype.c           0x00000000   Number         0  ctype_c.o ABSOLUTE
    ../clib/microlib/ctype/ctype.c           0x00000000   Number         0  isspace_c.o ABSOLUTE
    ../clib/microlib/division.c              0x00000000   Number         0  uldiv.o ABSOLUTE
    ../clib/microlib/division.c              0x00000000   Number         0  uidiv.o ABSOLUTE
    ../clib/microlib/init/entry.s            0x00000000   Number         0  entry11a.o ABSOLUTE
    ../clib/microlib/init/entry.s            0x00000000   Number         0  entry10b.o ABSOLUTE
    ../clib/microlib/init/entry.s            0x00000000   Number         0  entry10a.o ABSOLUTE
    ../clib/microlib/init/entry.s            0x00000000   Number         0  entry7a.o ABSOLUTE
    ../clib/microlib/init/entry.s            0x00000000   Number         0  entry5.o ABSOLUTE
    ../clib/microlib/init/entry.s            0x00000000   Number         0  entry2.o ABSOLUTE
    ../clib/microlib/init/entry.s            0x00000000   Number         0  entry6b.o ABSOLUTE
    ../clib/microlib/init/entry.s            0x00000000   Number         0  entry6a.o ABSOLUTE
    ../clib/microlib/init/entry.s            0x00000000   Number         0  entry8b.o ABSOLUTE
    ../clib/microlib/init/entry.s            0x00000000   Number         0  entry.o ABSOLUTE
    ../clib/microlib/init/entry.s            0x00000000   Number         0  entry8a.o ABSOLUTE
    ../clib/microlib/init/entry.s            0x00000000   Number         0  entry9a.o ABSOLUTE
    ../clib/microlib/init/entry.s            0x00000000   Number         0  entry11b.o ABSOLUTE
    ../clib/microlib/init/entry.s            0x00000000   Number         0  entry9b.o ABSOLUTE
    ../clib/microlib/init/entry.s            0x00000000   Number         0  entry7b.o ABSOLUTE
    ../clib/microlib/longlong.c              0x00000000   Number         0  llushr.o ABSOLUTE
    ../clib/microlib/longlong.c              0x00000000   Number         0  llsshr.o ABSOLUTE
    ../clib/microlib/longlong.c              0x00000000   Number         0  llshl.o ABSOLUTE
    ../clib/microlib/malloc/malloc.c         0x00000000   Number         0  mallocra.o ABSOLUTE
    ../clib/microlib/malloc/malloc.c         0x00000000   Number         0  malloc.o ABSOLUTE
    ../clib/microlib/malloc/malloc.c         0x00000000   Number         0  mallocr.o ABSOLUTE
    ../clib/microlib/malloc/malloc.c         0x00000000   Number         0  malloca.o ABSOLUTE
    ../clib/microlib/malloc/mvars.c          0x00000000   Number         0  mvars.o ABSOLUTE
    ../clib/microlib/printf/printf.c         0x00000000   Number         0  printf5.o ABSOLUTE
    ../clib/microlib/printf/printf.c         0x00000000   Number         0  printfa.o ABSOLUTE
    ../clib/microlib/printf/printf.c         0x00000000   Number         0  printf3.o ABSOLUTE
    ../clib/microlib/printf/printf.c         0x00000000   Number         0  printf2.o ABSOLUTE
    ../clib/microlib/printf/printf.c         0x00000000   Number         0  printf0.o ABSOLUTE
    ../clib/microlib/printf/printf.c         0x00000000   Number         0  printfb.o ABSOLUTE
    ../clib/microlib/printf/printf.c         0x00000000   Number         0  printf1.o ABSOLUTE
    ../clib/microlib/printf/printf.c         0x00000000   Number         0  printf4.o ABSOLUTE
    ../clib/microlib/printf/printf.c         0x00000000   Number         0  printf8.o ABSOLUTE
    ../clib/microlib/printf/printf.c         0x00000000   Number         0  printf7.o ABSOLUTE
    ../clib/microlib/printf/printf.c         0x00000000   Number         0  printf6.o ABSOLUTE
    ../clib/microlib/printf/stubs.s          0x00000000   Number         0  stubs.o ABSOLUTE
    ../clib/microlib/stdio/fflush.c          0x00000000   Number         0  fflush.o ABSOLUTE
    ../clib/microlib/stdio/fflush_f.c        0x00000000   Number         0  fflush_f.o ABSOLUTE
    ../clib/microlib/stdio/fputc.c           0x00000000   Number         0  fputc.o ABSOLUTE
    ../clib/microlib/stdio/fputc.c           0x00000000   Number         0  fputc_f.o ABSOLUTE
    ../clib/microlib/stdio/fputc.c           0x00000000   Number         0  fputc_fp.o ABSOLUTE
    ../clib/microlib/stdio/initio.c          0x00000000   Number         0  initio_oe.o ABSOLUTE
    ../clib/microlib/stdio/semi.s            0x00000000   Number         0  semi.o ABSOLUTE
    ../clib/microlib/stdio/streams.c         0x00000000   Number         0  stderr.o ABSOLUTE
    ../clib/microlib/stdio/streams.c         0x00000000   Number         0  stdout_f.o ABSOLUTE
    ../clib/microlib/stdio/streams.c         0x00000000   Number         0  stderr_f.o ABSOLUTE
    ../clib/microlib/stdio/streams.c         0x00000000   Number         0  stdout.o ABSOLUTE
    ../clib/microlib/stdlib/abort.c          0x00000000   Number         0  abort.o ABSOLUTE
    ../clib/microlib/string/memcpy.c         0x00000000   Number         0  memcpya.o ABSOLUTE
    ../clib/microlib/string/memcpy.c         0x00000000   Number         0  memmoveb.o ABSOLUTE
    ../clib/microlib/string/memcpy.c         0x00000000   Number         0  memcpyb.o ABSOLUTE
    ../clib/microlib/string/memcpy.c         0x00000000   Number         0  memmovea.o ABSOLUTE
    ../clib/microlib/string/memset.c         0x00000000   Number         0  memseta.o ABSOLUTE
    ../clib/microlib/string/strcmp.c         0x00000000   Number         0  strcmp.o ABSOLUTE
    ../clib/microlib/string/strlen.c         0x00000000   Number         0  strlen.o ABSOLUTE
    ../clib/microlib/string/strncmp.c        0x00000000   Number         0  strncmp.o ABSOLUTE
    ../clib/microlib/string/strncpy.c        0x00000000   Number         0  strncpy.o ABSOLUTE
    ../clib/microlib/stubs.s                 0x00000000   Number         0  iusesemip.o ABSOLUTE
    ../clib/microlib/stubs.s                 0x00000000   Number         0  iusefp.o ABSOLUTE
    ../clib/scanf.c                          0x00000000   Number         0  __0sscanf.o ABSOLUTE
    ../clib/scanf.c                          0x00000000   Number         0  _chval.o ABSOLUTE
    ../clib/scanf.c                          0x00000000   Number         0  scanf_char.o ABSOLUTE
    ../clib/scanf.c                          0x00000000   Number         0  _sgetc.o ABSOLUTE
    ../clib/scanf.c                          0x00000000   Number         0  _scanf.o ABSOLUTE
    ../clib/scanf.c                          0x00000000   Number         0  _scanf_int.o ABSOLUTE
    ../fplib/microlib/f2d.c                  0x00000000   Number         0  f2d.o ABSOLUTE
    ../fplib/microlib/fpadd.c                0x00000000   Number         0  dadd.o ABSOLUTE
    ../fplib/microlib/fpdiv.c                0x00000000   Number         0  ddiv.o ABSOLUTE
    ../fplib/microlib/fpepilogue.c           0x00000000   Number         0  depilogue.o ABSOLUTE
    ../fplib/microlib/fpfix.c                0x00000000   Number         0  dfixul.o ABSOLUTE
    ../fplib/microlib/fpmul.c                0x00000000   Number         0  dmul.o ABSOLUTE
    c:\Code\git_repo\github\mbed-official\libraries\mbed\common\FileBase.cpp 0x00000000   Number         0  FileBase.o ABSOLUTE
    c:\Code\git_repo\github\mbed-official\libraries\mbed\common\FilePath.cpp 0x00000000   Number         0  FilePath.o ABSOLUTE
    c:\Code\git_repo\github\mbed-official\libraries\mbed\common\FileSystemLike.cpp 0x00000000   Number         0  FileSystemLike.o ABSOLUTE
    c:\Code\git_repo\github\mbed-official\libraries\mbed\common\I2C.cpp 0x00000000   Number         0  I2C.o ABSOLUTE
    c:\Code\git_repo\github\mbed-official\libraries\mbed\common\assert.c 0x00000000   Number         0  assert.o ABSOLUTE
    c:\Code\git_repo\github\mbed-official\libraries\mbed\common\board.c 0x00000000   Number         0  board.o ABSOLUTE
    c:\Code\git_repo\github\mbed-official\libraries\mbed\common\error.c 0x00000000   Number         0  error.o ABSOLUTE
    c:\Code\git_repo\github\mbed-official\libraries\mbed\common\exit.c 0x00000000   Number         0  exit.o ABSOLUTE
    c:\Code\git_repo\github\mbed-official\libraries\mbed\common\pinmap_common.c 0x00000000   Number         0  pinmap_common.o ABSOLUTE
    c:\Code\git_repo\github\mbed-official\libraries\mbed\common\retarget.cpp 0x00000000   Number         0  retarget.o ABSOLUTE
    c:\Code\git_repo\github\mbed-official\libraries\mbed\common\us_ticker_api.c 0x00000000   Number         0  us_ticker_api.o ABSOLUTE
    c:\Code\git_repo\github\mbed-official\libraries\mbed\common\wait_api.c 0x00000000   Number         0  wait_api.o ABSOLUTE
    c:\Code\git_repo\github\mbed-official\libraries\mbed\targets\cmsis\TARGET_STM\TARGET_NUCLEO_F401RE\TOOLCHAIN_ARM_MICRO\sys.cpp 0x00000000   Number         0  sys.o ABSOLUTE
    c:\Code\git_repo\github\mbed-official\libraries\mbed\targets\cmsis\TARGET_STM\TARGET_NUCLEO_F401RE\cmsis_nvic.c 0x00000000   Number         0  cmsis_nvic.o ABSOLUTE
    c:\Code\git_repo\github\mbed-official\libraries\mbed\targets\cmsis\TARGET_STM\TARGET_NUCLEO_F401RE\hal_tick.c 0x00000000   Number         0  hal_tick.o ABSOLUTE
    c:\Code\git_repo\github\mbed-official\libraries\mbed\targets\cmsis\TARGET_STM\TARGET_NUCLEO_F401RE\stm32f4xx_hal.c 0x00000000   Number         0  stm32f4xx_hal.o ABSOLUTE
    c:\Code\git_repo\github\mbed-official\libraries\mbed\targets\cmsis\TARGET_STM\TARGET_NUCLEO_F401RE\stm32f4xx_hal_adc.c 0x00000000   Number         0  stm32f4xx_hal_adc.o ABSOLUTE
    c:\Code\git_repo\github\mbed-official\libraries\mbed\targets\cmsis\TARGET_STM\TARGET_NUCLEO_F401RE\stm32f4xx_hal_adc_ex.c 0x00000000   Number         0  stm32f4xx_hal_adc_ex.o ABSOLUTE
    c:\Code\git_repo\github\mbed-official\libraries\mbed\targets\cmsis\TARGET_STM\TARGET_NUCLEO_F401RE\stm32f4xx_hal_can.c 0x00000000   Number         0  stm32f4xx_hal_can.o ABSOLUTE
    c:\Code\git_repo\github\mbed-official\libraries\mbed\targets\cmsis\TARGET_STM\TARGET_NUCLEO_F401RE\stm32f4xx_hal_cortex.c 0x00000000   Number         0  stm32f4xx_hal_cortex.o ABSOLUTE
    c:\Code\git_repo\github\mbed-official\libraries\mbed\targets\cmsis\TARGET_STM\TARGET_NUCLEO_F401RE\stm32f4xx_hal_crc.c 0x00000000   Number         0  stm32f4xx_hal_crc.o ABSOLUTE
    c:\Code\git_repo\github\mbed-official\libraries\mbed\targets\cmsis\TARGET_STM\TARGET_NUCLEO_F401RE\stm32f4xx_hal_cryp.c 0x00000000   Number         0  stm32f4xx_hal_cryp.o ABSOLUTE
    c:\Code\git_repo\github\mbed-official\libraries\mbed\targets\cmsis\TARGET_STM\TARGET_NUCLEO_F401RE\stm32f4xx_hal_cryp_ex.c 0x00000000   Number         0  stm32f4xx_hal_cryp_ex.o ABSOLUTE
    c:\Code\git_repo\github\mbed-official\libraries\mbed\targets\cmsis\TARGET_STM\TARGET_NUCLEO_F401RE\stm32f4xx_hal_dac.c 0x00000000   Number         0  stm32f4xx_hal_dac.o ABSOLUTE
    c:\Code\git_repo\github\mbed-official\libraries\mbed\targets\cmsis\TARGET_STM\TARGET_NUCLEO_F401RE\stm32f4xx_hal_dac_ex.c 0x00000000   Number         0  stm32f4xx_hal_dac_ex.o ABSOLUTE
    c:\Code\git_repo\github\mbed-official\libraries\mbed\targets\cmsis\TARGET_STM\TARGET_NUCLEO_F401RE\stm32f4xx_hal_dcmi.c 0x00000000   Number         0  stm32f4xx_hal_dcmi.o ABSOLUTE
    c:\Code\git_repo\github\mbed-official\libraries\mbed\targets\cmsis\TARGET_STM\TARGET_NUCLEO_F401RE\stm32f4xx_hal_dma.c 0x00000000   Number         0  stm32f4xx_hal_dma.o ABSOLUTE
    c:\Code\git_repo\github\mbed-official\libraries\mbed\targets\cmsis\TARGET_STM\TARGET_NUCLEO_F401RE\stm32f4xx_hal_dma2d.c 0x00000000   Number         0  stm32f4xx_hal_dma2d.o ABSOLUTE
    c:\Code\git_repo\github\mbed-official\libraries\mbed\targets\cmsis\TARGET_STM\TARGET_NUCLEO_F401RE\stm32f4xx_hal_dma_ex.c 0x00000000   Number         0  stm32f4xx_hal_dma_ex.o ABSOLUTE
    c:\Code\git_repo\github\mbed-official\libraries\mbed\targets\cmsis\TARGET_STM\TARGET_NUCLEO_F401RE\stm32f4xx_hal_eth.c 0x00000000   Number         0  stm32f4xx_hal_eth.o ABSOLUTE
    c:\Code\git_repo\github\mbed-official\libraries\mbed\targets\cmsis\TARGET_STM\TARGET_NUCLEO_F401RE\stm32f4xx_hal_flash.c 0x00000000   Number         0  stm32f4xx_hal_flash.o ABSOLUTE
    c:\Code\git_repo\github\mbed-official\libraries\mbed\targets\cmsis\TARGET_STM\TARGET_NUCLEO_F401RE\stm32f4xx_hal_flash_ex.c 0x00000000   Number         0  stm32f4xx_hal_flash_ex.o ABSOLUTE
    c:\Code\git_repo\github\mbed-official\libraries\mbed\targets\cmsis\TARGET_STM\TARGET_NUCLEO_F401RE\stm32f4xx_hal_flash_ramfunc.c 0x00000000   Number         0  stm32f4xx_hal_flash_ramfunc.o ABSOLUTE
    c:\Code\git_repo\github\mbed-official\libraries\mbed\targets\cmsis\TARGET_STM\TARGET_NUCLEO_F401RE\stm32f4xx_hal_gpio.c 0x00000000   Number         0  stm32f4xx_hal_gpio.o ABSOLUTE
    c:\Code\git_repo\github\mbed-official\libraries\mbed\targets\cmsis\TARGET_STM\TARGET_NUCLEO_F401RE\stm32f4xx_hal_hash.c 0x00000000   Number         0  stm32f4xx_hal_hash.o ABSOLUTE
    c:\Code\git_repo\github\mbed-official\libraries\mbed\targets\cmsis\TARGET_STM\TARGET_NUCLEO_F401RE\stm32f4xx_hal_hash_ex.c 0x00000000   Number         0  stm32f4xx_hal_hash_ex.o ABSOLUTE
    c:\Code\git_repo\github\mbed-official\libraries\mbed\targets\cmsis\TARGET_STM\TARGET_NUCLEO_F401RE\stm32f4xx_hal_hcd.c 0x00000000   Number         0  stm32f4xx_hal_hcd.o ABSOLUTE
    c:\Code\git_repo\github\mbed-official\libraries\mbed\targets\cmsis\TARGET_STM\TARGET_NUCLEO_F401RE\stm32f4xx_hal_i2c.c 0x00000000   Number         0  stm32f4xx_hal_i2c.o ABSOLUTE
    c:\Code\git_repo\github\mbed-official\libraries\mbed\targets\cmsis\TARGET_STM\TARGET_NUCLEO_F401RE\stm32f4xx_hal_i2c_ex.c 0x00000000   Number         0  stm32f4xx_hal_i2c_ex.o ABSOLUTE
    c:\Code\git_repo\github\mbed-official\libraries\mbed\targets\cmsis\TARGET_STM\TARGET_NUCLEO_F401RE\stm32f4xx_hal_i2s.c 0x00000000   Number         0  stm32f4xx_hal_i2s.o ABSOLUTE
    c:\Code\git_repo\github\mbed-official\libraries\mbed\targets\cmsis\TARGET_STM\TARGET_NUCLEO_F401RE\stm32f4xx_hal_i2s_ex.c 0x00000000   Number         0  stm32f4xx_hal_i2s_ex.o ABSOLUTE
    c:\Code\git_repo\github\mbed-official\libraries\mbed\targets\cmsis\TARGET_STM\TARGET_NUCLEO_F401RE\stm32f4xx_hal_irda.c 0x00000000   Number         0  stm32f4xx_hal_irda.o ABSOLUTE
    c:\Code\git_repo\github\mbed-official\libraries\mbed\targets\cmsis\TARGET_STM\TARGET_NUCLEO_F401RE\stm32f4xx_hal_iwdg.c 0x00000000   Number         0  stm32f4xx_hal_iwdg.o ABSOLUTE
    c:\Code\git_repo\github\mbed-official\libraries\mbed\targets\cmsis\TARGET_STM\TARGET_NUCLEO_F401RE\stm32f4xx_hal_ltdc.c 0x00000000   Number         0  stm32f4xx_hal_ltdc.o ABSOLUTE
    c:\Code\git_repo\github\mbed-official\libraries\mbed\targets\cmsis\TARGET_STM\TARGET_NUCLEO_F401RE\stm32f4xx_hal_nand.c 0x00000000   Number         0  stm32f4xx_hal_nand.o ABSOLUTE
    c:\Code\git_repo\github\mbed-official\libraries\mbed\targets\cmsis\TARGET_STM\TARGET_NUCLEO_F401RE\stm32f4xx_hal_nor.c 0x00000000   Number         0  stm32f4xx_hal_nor.o ABSOLUTE
    c:\Code\git_repo\github\mbed-official\libraries\mbed\targets\cmsis\TARGET_STM\TARGET_NUCLEO_F401RE\stm32f4xx_hal_pccard.c 0x00000000   Number         0  stm32f4xx_hal_pccard.o ABSOLUTE
    c:\Code\git_repo\github\mbed-official\libraries\mbed\targets\cmsis\TARGET_STM\TARGET_NUCLEO_F401RE\stm32f4xx_hal_pcd.c 0x00000000   Number         0  stm32f4xx_hal_pcd.o ABSOLUTE
    c:\Code\git_repo\github\mbed-official\libraries\mbed\targets\cmsis\TARGET_STM\TARGET_NUCLEO_F401RE\stm32f4xx_hal_pcd_ex.c 0x00000000   Number         0  stm32f4xx_hal_pcd_ex.o ABSOLUTE
    c:\Code\git_repo\github\mbed-official\libraries\mbed\targets\cmsis\TARGET_STM\TARGET_NUCLEO_F401RE\stm32f4xx_hal_pwr.c 0x00000000   Number         0  stm32f4xx_hal_pwr.o ABSOLUTE
    c:\Code\git_repo\github\mbed-official\libraries\mbed\targets\cmsis\TARGET_STM\TARGET_NUCLEO_F401RE\stm32f4xx_hal_pwr_ex.c 0x00000000   Number         0  stm32f4xx_hal_pwr_ex.o ABSOLUTE
    c:\Code\git_repo\github\mbed-official\libraries\mbed\targets\cmsis\TARGET_STM\TARGET_NUCLEO_F401RE\stm32f4xx_hal_rcc.c 0x00000000   Number         0  stm32f4xx_hal_rcc.o ABSOLUTE
    c:\Code\git_repo\github\mbed-official\libraries\mbed\targets\cmsis\TARGET_STM\TARGET_NUCLEO_F401RE\stm32f4xx_hal_rcc_ex.c 0x00000000   Number         0  stm32f4xx_hal_rcc_ex.o ABSOLUTE
    c:\Code\git_repo\github\mbed-official\libraries\mbed\targets\cmsis\TARGET_STM\TARGET_NUCLEO_F401RE\stm32f4xx_hal_rng.c 0x00000000   Number         0  stm32f4xx_hal_rng.o ABSOLUTE
    c:\Code\git_repo\github\mbed-official\libraries\mbed\targets\cmsis\TARGET_STM\TARGET_NUCLEO_F401RE\stm32f4xx_hal_rtc.c 0x00000000   Number         0  stm32f4xx_hal_rtc.o ABSOLUTE
    c:\Code\git_repo\github\mbed-official\libraries\mbed\targets\cmsis\TARGET_STM\TARGET_NUCLEO_F401RE\stm32f4xx_hal_rtc_ex.c 0x00000000   Number         0  stm32f4xx_hal_rtc_ex.o ABSOLUTE
    c:\Code\git_repo\github\mbed-official\libraries\mbed\targets\cmsis\TARGET_STM\TARGET_NUCLEO_F401RE\stm32f4xx_hal_sai.c 0x00000000   Number         0  stm32f4xx_hal_sai.o ABSOLUTE
    c:\Code\git_repo\github\mbed-official\libraries\mbed\targets\cmsis\TARGET_STM\TARGET_NUCLEO_F401RE\stm32f4xx_hal_sd.c 0x00000000   Number         0  stm32f4xx_hal_sd.o ABSOLUTE
    c:\Code\git_repo\github\mbed-official\libraries\mbed\targets\cmsis\TARGET_STM\TARGET_NUCLEO_F401RE\stm32f4xx_hal_sdram.c 0x00000000   Number         0  stm32f4xx_hal_sdram.o ABSOLUTE
    c:\Code\git_repo\github\mbed-official\libraries\mbed\targets\cmsis\TARGET_STM\TARGET_NUCLEO_F401RE\stm32f4xx_hal_smartcard.c 0x00000000   Number         0  stm32f4xx_hal_smartcard.o ABSOLUTE
    c:\Code\git_repo\github\mbed-official\libraries\mbed\targets\cmsis\TARGET_STM\TARGET_NUCLEO_F401RE\stm32f4xx_hal_spi.c 0x00000000   Number         0  stm32f4xx_hal_spi.o ABSOLUTE
    c:\Code\git_repo\github\mbed-official\libraries\mbed\targets\cmsis\TARGET_STM\TARGET_NUCLEO_F401RE\stm32f4xx_hal_sram.c 0x00000000   Number         0  stm32f4xx_hal_sram.o ABSOLUTE
    c:\Code\git_repo\github\mbed-official\libraries\mbed\targets\cmsis\TARGET_STM\TARGET_NUCLEO_F401RE\stm32f4xx_hal_tim.c 0x00000000   Number         0  stm32f4xx_hal_tim.o ABSOLUTE
    c:\Code\git_repo\github\mbed-official\libraries\mbed\targets\cmsis\TARGET_STM\TARGET_NUCLEO_F401RE\stm32f4xx_hal_tim_ex.c 0x00000000   Number         0  stm32f4xx_hal_tim_ex.o ABSOLUTE
    c:\Code\git_repo\github\mbed-official\libraries\mbed\targets\cmsis\TARGET_STM\TARGET_NUCLEO_F401RE\stm32f4xx_hal_uart.c 0x00000000   Number         0  stm32f4xx_hal_uart.o ABSOLUTE
    c:\Code\git_repo\github\mbed-official\libraries\mbed\targets\cmsis\TARGET_STM\TARGET_NUCLEO_F401RE\stm32f4xx_hal_usart.c 0x00000000   Number         0  stm32f4xx_hal_usart.o ABSOLUTE
    c:\Code\git_repo\github\mbed-official\libraries\mbed\targets\cmsis\TARGET_STM\TARGET_NUCLEO_F401RE\stm32f4xx_hal_wwdg.c 0x00000000   Number         0  stm32f4xx_hal_wwdg.o ABSOLUTE
    c:\Code\git_repo\github\mbed-official\libraries\mbed\targets\cmsis\TARGET_STM\TARGET_NUCLEO_F401RE\stm32f4xx_ll_fmc.c 0x00000000   Number         0  stm32f4xx_ll_fmc.o ABSOLUTE
    c:\Code\git_repo\github\mbed-official\libraries\mbed\targets\cmsis\TARGET_STM\TARGET_NUCLEO_F401RE\stm32f4xx_ll_fsmc.c 0x00000000   Number         0  stm32f4xx_ll_fsmc.o ABSOLUTE
    c:\Code\git_repo\github\mbed-official\libraries\mbed\targets\cmsis\TARGET_STM\TARGET_NUCLEO_F401RE\stm32f4xx_ll_sdmmc.c 0x00000000   Number         0  stm32f4xx_ll_sdmmc.o ABSOLUTE
    c:\Code\git_repo\github\mbed-official\libraries\mbed\targets\cmsis\TARGET_STM\TARGET_NUCLEO_F401RE\stm32f4xx_ll_usb.c 0x00000000   Number         0  stm32f4xx_ll_usb.o ABSOLUTE
    c:\Code\git_repo\github\mbed-official\libraries\mbed\targets\cmsis\TARGET_STM\TARGET_NUCLEO_F401RE\system_stm32f4xx.c 0x00000000   Number         0  system_stm32f4xx.o ABSOLUTE
    c:\Code\git_repo\github\mbed-official\libraries\mbed\targets\hal\TARGET_STM\TARGET_NUCLEO_F401RE\i2c_api.c 0x00000000   Number         0  i2c_api.o ABSOLUTE
    c:\Code\git_repo\github\mbed-official\libraries\mbed\targets\hal\TARGET_STM\TARGET_NUCLEO_F401RE\mbed_overrides.c 0x00000000   Number         0  mbed_overrides.o ABSOLUTE
    c:\Code\git_repo\github\mbed-official\libraries\mbed\targets\hal\TARGET_STM\TARGET_NUCLEO_F401RE\pinmap.c 0x00000000   Number         0  pinmap.o ABSOLUTE
    c:\Code\git_repo\github\mbed-official\libraries\mbed\targets\hal\TARGET_STM\TARGET_NUCLEO_F401RE\pwmout_api.c 0x00000000   Number         0  pwmout_api.o ABSOLUTE
    c:\Code\git_repo\github\mbed-official\libraries\mbed\targets\hal\TARGET_STM\TARGET_NUCLEO_F401RE\serial_api.c 0x00000000   Number         0  serial_api.o ABSOLUTE
    c:\Code\git_repo\github\mbed-official\libraries\mbed\targets\hal\TARGET_STM\TARGET_NUCLEO_F401RE\us_ticker.c 0x00000000   Number         0  us_ticker.o ABSOLUTE
    c:\\Code\\git_repo\\github\\mbed-official\\libraries\\mbed\\common\\FileBase.cpp 0x00000000   Number         0  FileBase.o ABSOLUTE
    c:\\Code\\git_repo\\github\\mbed-official\\libraries\\mbed\\common\\FilePath.cpp 0x00000000   Number         0  FilePath.o ABSOLUTE
    c:\\Code\\git_repo\\github\\mbed-official\\libraries\\mbed\\common\\FileSystemLike.cpp 0x00000000   Number         0  FileSystemLike.o ABSOLUTE
    c:\\Code\\git_repo\\github\\mbed-official\\libraries\\mbed\\common\\I2C.cpp 0x00000000   Number         0  I2C.o ABSOLUTE
    c:\\Code\\git_repo\\github\\mbed-official\\libraries\\mbed\\common\\assert.c 0x00000000   Number         0  assert.o ABSOLUTE
    c:\\Code\\git_repo\\github\\mbed-official\\libraries\\mbed\\common\\board.c 0x00000000   Number         0  board.o ABSOLUTE
    c:\\Code\\git_repo\\github\\mbed-official\\libraries\\mbed\\common\\error.c 0x00000000   Number         0  error.o ABSOLUTE
    c:\\Code\\git_repo\\github\\mbed-official\\libraries\\mbed\\common\\exit.c 0x00000000   Number         0  exit.o ABSOLUTE
    c:\\Code\\git_repo\\github\\mbed-official\\libraries\\mbed\\common\\pinmap_common.c 0x00000000   Number         0  pinmap_common.o ABSOLUTE
    c:\\Code\\git_repo\\github\\mbed-official\\libraries\\mbed\\common\\retarget.cpp 0x00000000   Number         0  retarget.o ABSOLUTE
    c:\\Code\\git_repo\\github\\mbed-official\\libraries\\mbed\\common\\us_ticker_api.c 0x00000000   Number         0  us_ticker_api.o ABSOLUTE
    c:\\Code\\git_repo\\github\\mbed-official\\libraries\\mbed\\targets\\cmsis\\TARGET_STM\\TARGET_NUCLEO_F401RE\\TOOLCHAIN_ARM_MICRO\\startup_stm32f401xe.s 0x00000000   Number         0  startup_stm32f401xe.o ABSOLUTE
    c:\\Code\\git_repo\\github\\mbed-official\\libraries\\mbed\\targets\\cmsis\\TARGET_STM\\TARGET_NUCLEO_F401RE\\cmsis_nvic.c 0x00000000   Number         0  cmsis_nvic.o ABSOLUTE
    c:\\Code\\git_repo\\github\\mbed-official\\libraries\\mbed\\targets\\cmsis\\TARGET_STM\\TARGET_NUCLEO_F401RE\\hal_tick.c 0x00000000   Number         0  hal_tick.o ABSOLUTE
    c:\\Code\\git_repo\\github\\mbed-official\\libraries\\mbed\\targets\\cmsis\\TARGET_STM\\TARGET_NUCLEO_F401RE\\stm32f4xx_hal.c 0x00000000   Number         0  stm32f4xx_hal.o ABSOLUTE
    c:\\Code\\git_repo\\github\\mbed-official\\libraries\\mbed\\targets\\cmsis\\TARGET_STM\\TARGET_NUCLEO_F401RE\\stm32f4xx_hal_adc.c 0x00000000   Number         0  stm32f4xx_hal_adc.o ABSOLUTE
    c:\\Code\\git_repo\\github\\mbed-official\\libraries\\mbed\\targets\\cmsis\\TARGET_STM\\TARGET_NUCLEO_F401RE\\stm32f4xx_hal_adc_ex.c 0x00000000   Number         0  stm32f4xx_hal_adc_ex.o ABSOLUTE
    c:\\Code\\git_repo\\github\\mbed-official\\libraries\\mbed\\targets\\cmsis\\TARGET_STM\\TARGET_NUCLEO_F401RE\\stm32f4xx_hal_can.c 0x00000000   Number         0  stm32f4xx_hal_can.o ABSOLUTE
    c:\\Code\\git_repo\\github\\mbed-official\\libraries\\mbed\\targets\\cmsis\\TARGET_STM\\TARGET_NUCLEO_F401RE\\stm32f4xx_hal_cortex.c 0x00000000   Number         0  stm32f4xx_hal_cortex.o ABSOLUTE
    c:\\Code\\git_repo\\github\\mbed-official\\libraries\\mbed\\targets\\cmsis\\TARGET_STM\\TARGET_NUCLEO_F401RE\\stm32f4xx_hal_crc.c 0x00000000   Number         0  stm32f4xx_hal_crc.o ABSOLUTE
    c:\\Code\\git_repo\\github\\mbed-official\\libraries\\mbed\\targets\\cmsis\\TARGET_STM\\TARGET_NUCLEO_F401RE\\stm32f4xx_hal_cryp.c 0x00000000   Number         0  stm32f4xx_hal_cryp.o ABSOLUTE
    c:\\Code\\git_repo\\github\\mbed-official\\libraries\\mbed\\targets\\cmsis\\TARGET_STM\\TARGET_NUCLEO_F401RE\\stm32f4xx_hal_cryp_ex.c 0x00000000   Number         0  stm32f4xx_hal_cryp_ex.o ABSOLUTE
    c:\\Code\\git_repo\\github\\mbed-official\\libraries\\mbed\\targets\\cmsis\\TARGET_STM\\TARGET_NUCLEO_F401RE\\stm32f4xx_hal_dac.c 0x00000000   Number         0  stm32f4xx_hal_dac.o ABSOLUTE
    c:\\Code\\git_repo\\github\\mbed-official\\libraries\\mbed\\targets\\cmsis\\TARGET_STM\\TARGET_NUCLEO_F401RE\\stm32f4xx_hal_dac_ex.c 0x00000000   Number         0  stm32f4xx_hal_dac_ex.o ABSOLUTE
    c:\\Code\\git_repo\\github\\mbed-official\\libraries\\mbed\\targets\\cmsis\\TARGET_STM\\TARGET_NUCLEO_F401RE\\stm32f4xx_hal_dcmi.c 0x00000000   Number         0  stm32f4xx_hal_dcmi.o ABSOLUTE
    c:\\Code\\git_repo\\github\\mbed-official\\libraries\\mbed\\targets\\cmsis\\TARGET_STM\\TARGET_NUCLEO_F401RE\\stm32f4xx_hal_dma.c 0x00000000   Number         0  stm32f4xx_hal_dma.o ABSOLUTE
    c:\\Code\\git_repo\\github\\mbed-official\\libraries\\mbed\\targets\\cmsis\\TARGET_STM\\TARGET_NUCLEO_F401RE\\stm32f4xx_hal_dma2d.c 0x00000000   Number         0  stm32f4xx_hal_dma2d.o ABSOLUTE
    c:\\Code\\git_repo\\github\\mbed-official\\libraries\\mbed\\targets\\cmsis\\TARGET_STM\\TARGET_NUCLEO_F401RE\\stm32f4xx_hal_dma_ex.c 0x00000000   Number         0  stm32f4xx_hal_dma_ex.o ABSOLUTE
    c:\\Code\\git_repo\\github\\mbed-official\\libraries\\mbed\\targets\\cmsis\\TARGET_STM\\TARGET_NUCLEO_F401RE\\stm32f4xx_hal_eth.c 0x00000000   Number         0  stm32f4xx_hal_eth.o ABSOLUTE
    c:\\Code\\git_repo\\github\\mbed-official\\libraries\\mbed\\targets\\cmsis\\TARGET_STM\\TARGET_NUCLEO_F401RE\\stm32f4xx_hal_flash.c 0x00000000   Number         0  stm32f4xx_hal_flash.o ABSOLUTE
    c:\\Code\\git_repo\\github\\mbed-official\\libraries\\mbed\\targets\\cmsis\\TARGET_STM\\TARGET_NUCLEO_F401RE\\stm32f4xx_hal_flash_ex.c 0x00000000   Number         0  stm32f4xx_hal_flash_ex.o ABSOLUTE
    c:\\Code\\git_repo\\github\\mbed-official\\libraries\\mbed\\targets\\cmsis\\TARGET_STM\\TARGET_NUCLEO_F401RE\\stm32f4xx_hal_flash_ramfunc.c 0x00000000   Number         0  stm32f4xx_hal_flash_ramfunc.o ABSOLUTE
    c:\\Code\\git_repo\\github\\mbed-official\\libraries\\mbed\\targets\\cmsis\\TARGET_STM\\TARGET_NUCLEO_F401RE\\stm32f4xx_hal_gpio.c 0x00000000   Number         0  stm32f4xx_hal_gpio.o ABSOLUTE
    c:\\Code\\git_repo\\github\\mbed-official\\libraries\\mbed\\targets\\cmsis\\TARGET_STM\\TARGET_NUCLEO_F401RE\\stm32f4xx_hal_hash.c 0x00000000   Number         0  stm32f4xx_hal_hash.o ABSOLUTE
    c:\\Code\\git_repo\\github\\mbed-official\\libraries\\mbed\\targets\\cmsis\\TARGET_STM\\TARGET_NUCLEO_F401RE\\stm32f4xx_hal_hash_ex.c 0x00000000   Number         0  stm32f4xx_hal_hash_ex.o ABSOLUTE
    c:\\Code\\git_repo\\github\\mbed-official\\libraries\\mbed\\targets\\cmsis\\TARGET_STM\\TARGET_NUCLEO_F401RE\\stm32f4xx_hal_hcd.c 0x00000000   Number         0  stm32f4xx_hal_hcd.o ABSOLUTE
    c:\\Code\\git_repo\\github\\mbed-official\\libraries\\mbed\\targets\\cmsis\\TARGET_STM\\TARGET_NUCLEO_F401RE\\stm32f4xx_hal_i2c.c 0x00000000   Number         0  stm32f4xx_hal_i2c.o ABSOLUTE
    c:\\Code\\git_repo\\github\\mbed-official\\libraries\\mbed\\targets\\cmsis\\TARGET_STM\\TARGET_NUCLEO_F401RE\\stm32f4xx_hal_i2c_ex.c 0x00000000   Number         0  stm32f4xx_hal_i2c_ex.o ABSOLUTE
    c:\\Code\\git_repo\\github\\mbed-official\\libraries\\mbed\\targets\\cmsis\\TARGET_STM\\TARGET_NUCLEO_F401RE\\stm32f4xx_hal_i2s.c 0x00000000   Number         0  stm32f4xx_hal_i2s.o ABSOLUTE
    c:\\Code\\git_repo\\github\\mbed-official\\libraries\\mbed\\targets\\cmsis\\TARGET_STM\\TARGET_NUCLEO_F401RE\\stm32f4xx_hal_i2s_ex.c 0x00000000   Number         0  stm32f4xx_hal_i2s_ex.o ABSOLUTE
    c:\\Code\\git_repo\\github\\mbed-official\\libraries\\mbed\\targets\\cmsis\\TARGET_STM\\TARGET_NUCLEO_F401RE\\stm32f4xx_hal_irda.c 0x00000000   Number         0  stm32f4xx_hal_irda.o ABSOLUTE
    c:\\Code\\git_repo\\github\\mbed-official\\libraries\\mbed\\targets\\cmsis\\TARGET_STM\\TARGET_NUCLEO_F401RE\\stm32f4xx_hal_iwdg.c 0x00000000   Number         0  stm32f4xx_hal_iwdg.o ABSOLUTE
    c:\\Code\\git_repo\\github\\mbed-official\\libraries\\mbed\\targets\\cmsis\\TARGET_STM\\TARGET_NUCLEO_F401RE\\stm32f4xx_hal_ltdc.c 0x00000000   Number         0  stm32f4xx_hal_ltdc.o ABSOLUTE
    c:\\Code\\git_repo\\github\\mbed-official\\libraries\\mbed\\targets\\cmsis\\TARGET_STM\\TARGET_NUCLEO_F401RE\\stm32f4xx_hal_nand.c 0x00000000   Number         0  stm32f4xx_hal_nand.o ABSOLUTE
    c:\\Code\\git_repo\\github\\mbed-official\\libraries\\mbed\\targets\\cmsis\\TARGET_STM\\TARGET_NUCLEO_F401RE\\stm32f4xx_hal_nor.c 0x00000000   Number         0  stm32f4xx_hal_nor.o ABSOLUTE
    c:\\Code\\git_repo\\github\\mbed-official\\libraries\\mbed\\targets\\cmsis\\TARGET_STM\\TARGET_NUCLEO_F401RE\\stm32f4xx_hal_pccard.c 0x00000000   Number         0  stm32f4xx_hal_pccard.o ABSOLUTE
    c:\\Code\\git_repo\\github\\mbed-official\\libraries\\mbed\\targets\\cmsis\\TARGET_STM\\TARGET_NUCLEO_F401RE\\stm32f4xx_hal_pcd.c 0x00000000   Number         0  stm32f4xx_hal_pcd.o ABSOLUTE
    c:\\Code\\git_repo\\github\\mbed-official\\libraries\\mbed\\targets\\cmsis\\TARGET_STM\\TARGET_NUCLEO_F401RE\\stm32f4xx_hal_pcd_ex.c 0x00000000   Number         0  stm32f4xx_hal_pcd_ex.o ABSOLUTE
    c:\\Code\\git_repo\\github\\mbed-official\\libraries\\mbed\\targets\\cmsis\\TARGET_STM\\TARGET_NUCLEO_F401RE\\stm32f4xx_hal_pwr.c 0x00000000   Number         0  stm32f4xx_hal_pwr.o ABSOLUTE
    c:\\Code\\git_repo\\github\\mbed-official\\libraries\\mbed\\targets\\cmsis\\TARGET_STM\\TARGET_NUCLEO_F401RE\\stm32f4xx_hal_pwr_ex.c 0x00000000   Number         0  stm32f4xx_hal_pwr_ex.o ABSOLUTE
    c:\\Code\\git_repo\\github\\mbed-official\\libraries\\mbed\\targets\\cmsis\\TARGET_STM\\TARGET_NUCLEO_F401RE\\stm32f4xx_hal_rcc.c 0x00000000   Number         0  stm32f4xx_hal_rcc.o ABSOLUTE
    c:\\Code\\git_repo\\github\\mbed-official\\libraries\\mbed\\targets\\cmsis\\TARGET_STM\\TARGET_NUCLEO_F401RE\\stm32f4xx_hal_rcc_ex.c 0x00000000   Number         0  stm32f4xx_hal_rcc_ex.o ABSOLUTE
    c:\\Code\\git_repo\\github\\mbed-official\\libraries\\mbed\\targets\\cmsis\\TARGET_STM\\TARGET_NUCLEO_F401RE\\stm32f4xx_hal_rng.c 0x00000000   Number         0  stm32f4xx_hal_rng.o ABSOLUTE
    c:\\Code\\git_repo\\github\\mbed-official\\libraries\\mbed\\targets\\cmsis\\TARGET_STM\\TARGET_NUCLEO_F401RE\\stm32f4xx_hal_rtc.c 0x00000000   Number         0  stm32f4xx_hal_rtc.o ABSOLUTE
    c:\\Code\\git_repo\\github\\mbed-official\\libraries\\mbed\\targets\\cmsis\\TARGET_STM\\TARGET_NUCLEO_F401RE\\stm32f4xx_hal_rtc_ex.c 0x00000000   Number         0  stm32f4xx_hal_rtc_ex.o ABSOLUTE
    c:\\Code\\git_repo\\github\\mbed-official\\libraries\\mbed\\targets\\cmsis\\TARGET_STM\\TARGET_NUCLEO_F401RE\\stm32f4xx_hal_sai.c 0x00000000   Number         0  stm32f4xx_hal_sai.o ABSOLUTE
    c:\\Code\\git_repo\\github\\mbed-official\\libraries\\mbed\\targets\\cmsis\\TARGET_STM\\TARGET_NUCLEO_F401RE\\stm32f4xx_hal_sd.c 0x00000000   Number         0  stm32f4xx_hal_sd.o ABSOLUTE
    c:\\Code\\git_repo\\github\\mbed-official\\libraries\\mbed\\targets\\cmsis\\TARGET_STM\\TARGET_NUCLEO_F401RE\\stm32f4xx_hal_sdram.c 0x00000000   Number         0  stm32f4xx_hal_sdram.o ABSOLUTE
    c:\\Code\\git_repo\\github\\mbed-official\\libraries\\mbed\\targets\\cmsis\\TARGET_STM\\TARGET_NUCLEO_F401RE\\stm32f4xx_hal_smartcard.c 0x00000000   Number         0  stm32f4xx_hal_smartcard.o ABSOLUTE
    c:\\Code\\git_repo\\github\\mbed-official\\libraries\\mbed\\targets\\cmsis\\TARGET_STM\\TARGET_NUCLEO_F401RE\\stm32f4xx_hal_spi.c 0x00000000   Number         0  stm32f4xx_hal_spi.o ABSOLUTE
    c:\\Code\\git_repo\\github\\mbed-official\\libraries\\mbed\\targets\\cmsis\\TARGET_STM\\TARGET_NUCLEO_F401RE\\stm32f4xx_hal_sram.c 0x00000000   Number         0  stm32f4xx_hal_sram.o ABSOLUTE
    c:\\Code\\git_repo\\github\\mbed-official\\libraries\\mbed\\targets\\cmsis\\TARGET_STM\\TARGET_NUCLEO_F401RE\\stm32f4xx_hal_tim.c 0x00000000   Number         0  stm32f4xx_hal_tim.o ABSOLUTE
    c:\\Code\\git_repo\\github\\mbed-official\\libraries\\mbed\\targets\\cmsis\\TARGET_STM\\TARGET_NUCLEO_F401RE\\stm32f4xx_hal_tim_ex.c 0x00000000   Number         0  stm32f4xx_hal_tim_ex.o ABSOLUTE
    c:\\Code\\git_repo\\github\\mbed-official\\libraries\\mbed\\targets\\cmsis\\TARGET_STM\\TARGET_NUCLEO_F401RE\\stm32f4xx_hal_uart.c 0x00000000   Number         0  stm32f4xx_hal_uart.o ABSOLUTE
    c:\\Code\\git_repo\\github\\mbed-official\\libraries\\mbed\\targets\\cmsis\\TARGET_STM\\TARGET_NUCLEO_F401RE\\stm32f4xx_hal_usart.c 0x00000000   Number         0  stm32f4xx_hal_usart.o ABSOLUTE
    c:\\Code\\git_repo\\github\\mbed-official\\libraries\\mbed\\targets\\cmsis\\TARGET_STM\\TARGET_NUCLEO_F401RE\\stm32f4xx_hal_wwdg.c 0x00000000   Number         0  stm32f4xx_hal_wwdg.o ABSOLUTE
    c:\\Code\\git_repo\\github\\mbed-official\\libraries\\mbed\\targets\\cmsis\\TARGET_STM\\TARGET_NUCLEO_F401RE\\stm32f4xx_ll_fmc.c 0x00000000   Number         0  stm32f4xx_ll_fmc.o ABSOLUTE
    c:\\Code\\git_repo\\github\\mbed-official\\libraries\\mbed\\targets\\cmsis\\TARGET_STM\\TARGET_NUCLEO_F401RE\\stm32f4xx_ll_fsmc.c 0x00000000   Number         0  stm32f4xx_ll_fsmc.o ABSOLUTE
    c:\\Code\\git_repo\\github\\mbed-official\\libraries\\mbed\\targets\\cmsis\\TARGET_STM\\TARGET_NUCLEO_F401RE\\stm32f4xx_ll_sdmmc.c 0x00000000   Number         0  stm32f4xx_ll_sdmmc.o ABSOLUTE
    c:\\Code\\git_repo\\github\\mbed-official\\libraries\\mbed\\targets\\cmsis\\TARGET_STM\\TARGET_NUCLEO_F401RE\\stm32f4xx_ll_usb.c 0x00000000   Number         0  stm32f4xx_ll_usb.o ABSOLUTE
    c:\\Code\\git_repo\\github\\mbed-official\\libraries\\mbed\\targets\\cmsis\\TARGET_STM\\TARGET_NUCLEO_F401RE\\system_stm32f4xx.c 0x00000000   Number         0  system_stm32f4xx.o ABSOLUTE
    c:\\Code\\git_repo\\github\\mbed-official\\libraries\\mbed\\targets\\hal\\TARGET_STM\\TARGET_NUCLEO_F401RE\\i2c_api.c 0x00000000   Number         0  i2c_api.o ABSOLUTE
    c:\\Code\\git_repo\\github\\mbed-official\\libraries\\mbed\\targets\\hal\\TARGET_STM\\TARGET_NUCLEO_F401RE\\mbed_overrides.c 0x00000000   Number         0  mbed_overrides.o ABSOLUTE
    c:\\Code\\git_repo\\github\\mbed-official\\libraries\\mbed\\targets\\hal\\TARGET_STM\\TARGET_NUCLEO_F401RE\\pinmap.c 0x00000000   Number         0  pinmap.o ABSOLUTE
    c:\\Code\\git_repo\\github\\mbed-official\\libraries\\mbed\\targets\\hal\\TARGET_STM\\TARGET_NUCLEO_F401RE\\pwmout_api.c 0x00000000   Number         0  pwmout_api.o ABSOLUTE
    c:\\Code\\git_repo\\github\\mbed-official\\libraries\\mbed\\targets\\hal\\TARGET_STM\\TARGET_NUCLEO_F401RE\\serial_api.c 0x00000000   Number         0  serial_api.o ABSOLUTE
    c:\\Code\\git_repo\\github\\mbed-official\\libraries\\mbed\\targets\\hal\\TARGET_STM\\TARGET_NUCLEO_F401RE\\us_ticker.c 0x00000000   Number         0  us_ticker.o ABSOLUTE
    cdrcmple.s                               0x00000000   Number         0  cdrcmple.o ABSOLUTE
    dc.s                                     0x00000000   Number         0  dc.o ABSOLUTE
    handlers.s                               0x00000000   Number         0  handlers.o ABSOLUTE
    init.s                                   0x00000000   Number         0  init.o ABSOLUTE
    main.cpp                                 0x00000000   Number         0  main.o ABSOLUTE
    main.cpp                                 0x00000000   Number         0  main.o ABSOLUTE
    RESET                                    0x08000000   Section      404  startup_stm32f401xe.o(RESET)
    .ARM.Collect$$$$00000000                 0x08000194   Section        0  entry.o(.ARM.Collect$$$$00000000)
    .ARM.Collect$$$$00000001                 0x08000194   Section        4  entry2.o(.ARM.Collect$$$$00000001)
    .ARM.Collect$$$$00000004                 0x08000198   Section        4  entry5.o(.ARM.Collect$$$$00000004)
    .ARM.Collect$$$$00000006                 0x0800019c   Section        4  entry6b.o(.ARM.Collect$$$$00000006)
    .ARM.Collect$$$$00000008                 0x080001a0   Section        0  entry7b.o(.ARM.Collect$$$$00000008)
    .ARM.Collect$$$$00000009                 0x080001a0   Section        4  entry8a.o(.ARM.Collect$$$$00000009)
    .ARM.Collect$$$$0000000A                 0x080001a4   Section        0  entry8b.o(.ARM.Collect$$$$0000000A)
    .ARM.Collect$$$$0000000B                 0x080001a4   Section        8  entry9a.o(.ARM.Collect$$$$0000000B)
    .ARM.Collect$$$$0000000D                 0x080001ac   Section        0  entry10a.o(.ARM.Collect$$$$0000000D)
    .ARM.Collect$$$$0000000F                 0x080001ac   Section        0  entry11a.o(.ARM.Collect$$$$0000000F)
    .ARM.Collect$$$$00002712                 0x080001ac   Section        4  entry2.o(.ARM.Collect$$$$00002712)
    __lit__00000000                          0x080001ac   Data           4  entry2.o(.ARM.Collect$$$$00002712)
    .text                                    0x080001b0   Section        0  main.o(.text)
    __sti___8_main_cpp_HTS221                0x0800055f   Thumb Code    28  main.o(.text)
    .text                                    0x080005bc   Section       36  startup_stm32f401xe.o(.text)
    $v0                                      0x080005bc   Number         0  startup_stm32f401xe.o(.text)
    .text                                    0x080005e0   Section        0  initio_oe.o(.text)
    .text                                    0x08000600   Section        0  memmovea.o(.text)
    .text                                    0x08000640   Section        0  memseta.o(.text)
    .text                                    0x08000664   Section        0  strlen.o(.text)
    .text                                    0x08000672   Section        0  strcmp.o(.text)
    .text                                    0x0800068e   Section        0  strncmp.o(.text)
    .text                                    0x080006ac   Section        0  __0sscanf.o(.text)
    .text                                    0x080006e4   Section        0  _scanf_int.o(.text)
    .text                                    0x08000830   Section        0  cpp_init.o(.text)
    .text                                    0x08000850   Section        0  f2d.o(.text)
    .text                                    0x08000876   Section        0  fputc_fp.o(.text)
    .text                                    0x0800089e   Section        0  uidiv.o(.text)
    .text                                    0x080008ca   Section        0  uldiv.o(.text)
    .text                                    0x0800092c   Section        0  _chval.o(.text)
    .text                                    0x08000948   Section        0  scanf_char.o(.text)
    _scanf_char_input                        0x08000949   Thumb Code    12  scanf_char.o(.text)
    .text                                    0x08000970   Section        0  _sgetc.o(.text)
    .text                                    0x080009b0   Section        0  iusefp.o(.text)
    .text                                    0x080009b0   Section        0  dadd.o(.text)
    .text                                    0x08000afe   Section        0  dmul.o(.text)
    .text                                    0x08000be2   Section        0  ddiv.o(.text)
    .text                                    0x08000cc0   Section        0  dfixul.o(.text)
    .text                                    0x08000cf0   Section       48  cdrcmple.o(.text)
    .text                                    0x08000d20   Section       36  init.o(.text)
    .text                                    0x08000d44   Section        0  llshl.o(.text)
    .text                                    0x08000d62   Section        0  llushr.o(.text)
    .text                                    0x08000d82   Section        0  llsshr.o(.text)
    .text                                    0x08000da6   Section        0  isspace_c.o(.text)
    .text                                    0x08000db0   Section        0  _scanf.o(.text)
    .text                                    0x080010dc   Section        0  depilogue.o(.text)
    .text                                    0x08001198   Section        0  ctype_c.o(.text)
    i.$Sub$$main                             0x080011c0   Section        0  retarget.o(i.$Sub$$main)
    i.HAL_GPIO_Init                          0x080011d4   Section        0  stm32f4xx_hal_gpio.o(i.HAL_GPIO_Init)
    i.HAL_GetTick                            0x0800141c   Section        0  stm32f4xx_hal.o(i.HAL_GetTick)
    i.HAL_I2C_Init                           0x08001428   Section        0  stm32f4xx_hal_i2c.o(i.HAL_I2C_Init)
    i.HAL_I2C_MspInit                        0x08001524   Section        0  stm32f4xx_hal_i2c.o(i.HAL_I2C_MspInit)
    i.HAL_IncTick                            0x08001528   Section        0  stm32f4xx_hal.o(i.HAL_IncTick)
    i.HAL_Init                               0x08001538   Section        0  stm32f4xx_hal.o(i.HAL_Init)
    i.HAL_InitTick                           0x0800156c   Section        0  hal_tick.o(i.HAL_InitTick)
    i.HAL_MspInit                            0x08001618   Section        0  stm32f4xx_hal.o(i.HAL_MspInit)
    i.HAL_NVIC_SetPriorityGrouping           0x0800161c   Section        0  stm32f4xx_hal_cortex.o(i.HAL_NVIC_SetPriorityGrouping)
    i.HAL_RCC_ClockConfig                    0x08001640   Section        0  stm32f4xx_hal_rcc.o(i.HAL_RCC_ClockConfig)
    i.HAL_RCC_GetHCLKFreq                    0x08001840   Section        0  stm32f4xx_hal_rcc.o(i.HAL_RCC_GetHCLKFreq)
    i.HAL_RCC_GetPCLK1Freq                   0x08001900   Section        0  stm32f4xx_hal_rcc.o(i.HAL_RCC_GetPCLK1Freq)
    i.HAL_RCC_GetPCLK2Freq                   0x0800192c   Section        0  stm32f4xx_hal_rcc.o(i.HAL_RCC_GetPCLK2Freq)
    i.HAL_RCC_OscConfig                      0x08001958   Section        0  stm32f4xx_hal_rcc.o(i.HAL_RCC_OscConfig)
    i.HAL_TIMEx_PWMN_Start                   0x08001d44   Section        0  stm32f4xx_hal_tim_ex.o(i.HAL_TIMEx_PWMN_Start)
    i.HAL_TIM_OC_Init                        0x08001d70   Section        0  stm32f4xx_hal_tim.o(i.HAL_TIM_OC_Init)
    i.HAL_TIM_OC_MspInit                     0x08001da2   Section        0  stm32f4xx_hal_tim.o(i.HAL_TIM_OC_MspInit)
    i.HAL_TIM_OC_Start                       0x08001da4   Section        0  stm32f4xx_hal_tim.o(i.HAL_TIM_OC_Start)
    i.HAL_TIM_PWM_ConfigChannel              0x08001ddc   Section        0  stm32f4xx_hal_tim.o(i.HAL_TIM_PWM_ConfigChannel)
    i.HAL_TIM_PWM_Init                       0x08001ff0   Section        0  stm32f4xx_hal_tim.o(i.HAL_TIM_PWM_Init)
    i.HAL_TIM_PWM_MspInit                    0x08002022   Section        0  stm32f4xx_hal_tim.o(i.HAL_TIM_PWM_MspInit)
    i.HAL_TIM_PWM_Start                      0x08002024   Section        0  stm32f4xx_hal_tim.o(i.HAL_TIM_PWM_Start)
    i.HAL_UART_Init                          0x0800205a   Section        0  stm32f4xx_hal_uart.o(i.HAL_UART_Init)
    i.HAL_UART_MspInit                       0x080020b8   Section        0  stm32f4xx_hal_uart.o(i.HAL_UART_MspInit)
    i.NVIC_SetVector                         0x080020bc   Section        0  cmsis_nvic.o(i.NVIC_SetVector)
    i.SetSysClock_PLL_HSE                    0x08002128   Section        0  system_stm32f4xx.o(i.SetSysClock_PLL_HSE)
    i.Set_GPIO_Clock                         0x080021a4   Section        0  pinmap.o(i.Set_GPIO_Clock)
    i.SystemCoreClockUpdate                  0x08002218   Section        0  system_stm32f4xx.o(i.SystemCoreClockUpdate)
    i.SystemInit                             0x0800229c   Section        0  system_stm32f4xx.o(i.SystemInit)
    i.TIM_Base_SetConfig                     0x0800239c   Section        0  stm32f4xx_hal_tim.o(i.TIM_Base_SetConfig)
    i.UART_SetConfig                         0x08002430   Section        0  stm32f4xx_hal_uart.o(i.UART_SetConfig)
    UART_SetConfig                           0x08002431   Thumb Code   522  stm32f4xx_hal_uart.o(i.UART_SetConfig)
    i._ZN4mbed3I2C4readEiPcib                0x08002648   Section        0  I2C.o(i._ZN4mbed3I2C4readEiPcib)
    i._ZN4mbed3I2C5writeEiPKcib              0x08002690   Section        0  I2C.o(i._ZN4mbed3I2C5writeEiPKcib)
    i._ZN4mbed3I2CC1E7PinNameS1_             0x080026d8   Section        0  I2C.o(i._ZN4mbed3I2CC1E7PinNameS1_)
    i._ZN4mbed8FileBase11getPathTypeEv       0x080026fc   Section        0  FileBase.o(i._ZN4mbed8FileBase11getPathTypeEv)
    i._ZN4mbed8FileBase6lookupEPKcj          0x08002700   Section        0  FileBase.o(i._ZN4mbed8FileBase6lookupEPKcj)
    i._ZN4mbed8FilePath10fileSystemEv        0x08002738   Section        0  FilePath.o(i._ZN4mbed8FilePath10fileSystemEv)
    i._ZN4mbed8FilePath4fileEv               0x08002750   Section        0  FilePath.o(i._ZN4mbed8FilePath4fileEv)
    i._ZN4mbed8FilePath6existsEv             0x0800276c   Section        0  FilePath.o(i._ZN4mbed8FilePath6existsEv)
    i._ZN4mbed8FilePath6isFileEv             0x08002776   Section        0  FilePath.o(i._ZN4mbed8FilePath6isFileEv)
    i._ZN4mbed8FilePath8fileNameEv           0x0800278e   Section        0  FilePath.o(i._ZN4mbed8FilePath8fileNameEv)
    i._ZN4mbed8FilePathC1EPKc                0x08002792   Section        0  FilePath.o(i._ZN4mbed8FilePathC1EPKc)
    i.__0fprintf                             0x080027d4   Section        0  printfa.o(i.__0fprintf)
    i.__0printf                              0x080027f0   Section        0  printfa.o(i.__0printf)
    i.__0vfprintf                            0x08002810   Section        0  printfa.o(i.__0vfprintf)
    i.__scatterload_copy                     0x08002828   Section       14  handlers.o(i.__scatterload_copy)
    i.__scatterload_null                     0x08002836   Section        2  handlers.o(i.__scatterload_null)
    i.__scatterload_zeroinit                 0x08002838   Section       14  handlers.o(i.__scatterload_zeroinit)
    i._fflush$full                           0x08002846   Section        0  fflush_f.o(i._fflush$full)
    i._fp_digits                             0x08002860   Section        0  printfa.o(i._fp_digits)
    _fp_digits                               0x08002861   Thumb Code   334  printfa.o(i._fp_digits)
    i._printf_core                           0x080029c4   Section        0  printfa.o(i._printf_core)
    _printf_core                             0x080029c5   Thumb Code  1744  printfa.o(i._printf_core)
    i._printf_post_padding                   0x080030a0   Section        0  printfa.o(i._printf_post_padding)
    _printf_post_padding                     0x080030a1   Thumb Code    36  printfa.o(i._printf_post_padding)
    i._printf_pre_padding                    0x080030c4   Section        0  printfa.o(i._printf_pre_padding)
    _printf_pre_padding                      0x080030c5   Thumb Code    46  printfa.o(i._printf_pre_padding)
    i._sys_open                              0x080030f4   Section        0  retarget.o(i._sys_open)
    i._sys_seek                              0x080031d8   Section        0  retarget.o(i._sys_seek)
    i._sys_write                             0x08003200   Section        0  retarget.o(i._sys_write)
    i.error                                  0x08003260   Section        0  error.o(i.error)
    i.exit                                   0x08003278   Section        0  exit.o(i.exit)
    i.i2c_frequency                          0x08003298   Section        0  i2c_api.o(i.i2c_frequency)
    i.i2c_init                               0x08003308   Section        0  i2c_api.o(i.i2c_init)
    i.i2c_read                               0x080034e4   Section        0  i2c_api.o(i.i2c_read)
    i.i2c_write                              0x08003610   Section        0  i2c_api.o(i.i2c_write)
    i.mbed_assert_internal                   0x08003720   Section        0  assert.o(i.mbed_assert_internal)
    i.mbed_die                               0x08003770   Section        0  board.o(i.mbed_die)
    i.mbed_main                              0x08003780   Section        0  retarget.o(i.mbed_main)
    i.mbed_sdk_init                          0x08003782   Section        0  mbed_overrides.o(i.mbed_sdk_init)
    i.pin_function                           0x08003790   Section        0  pinmap.o(i.pin_function)
    i.pin_mode                               0x080037fc   Section        0  pinmap.o(i.pin_mode)
    i.pinmap_merge                           0x08003854   Section        0  pinmap_common.o(i.pinmap_merge)
    i.pinmap_peripheral                      0x0800388c   Section        0  pinmap_common.o(i.pinmap_peripheral)
    i.pinmap_pinout                          0x080038e8   Section        0  pinmap_common.o(i.pinmap_pinout)
    i.pwmout_init                            0x08003940   Section        0  pwmout_api.o(i.pwmout_init)
    i.pwmout_period_ms                       0x08003a34   Section        0  pwmout_api.o(i.pwmout_period_ms)
    i.pwmout_period_us                       0x08003a40   Section        0  pwmout_api.o(i.pwmout_period_us)
    i.pwmout_pulsewidth_ms                   0x08003ae8   Section        0  pwmout_api.o(i.pwmout_pulsewidth_ms)
    i.pwmout_write                           0x08003b08   Section        0  pwmout_api.o(i.pwmout_write)
    i.serial_init                            0x08003be0   Section        0  serial_api.o(i.serial_init)
    i.serial_putc                            0x08003d48   Section        0  serial_api.o(i.serial_putc)
    i.timer_irq_handler                      0x08003d6c   Section        0  hal_tick.o(i.timer_irq_handler)
    i.us_ticker_clear_interrupt              0x08003dc0   Section        0  us_ticker.o(i.us_ticker_clear_interrupt)
    i.us_ticker_disable_interrupt            0x08003dd0   Section        0  us_ticker.o(i.us_ticker_disable_interrupt)
    i.us_ticker_irq_handler                  0x08003de4   Section        0  us_ticker_api.o(i.us_ticker_irq_handler)
    i.us_ticker_read                         0x08003e38   Section        0  us_ticker.o(i.us_ticker_read)
    i.us_ticker_set_interrupt                0x08003e68   Section        0  us_ticker.o(i.us_ticker_set_interrupt)
    i.wait_ms                                0x08003e7c   Section        0  wait_api.o(i.wait_ms)
    .constdata                               0x08003e98   Section       16  stm32f4xx_hal_rcc.o(.constdata)
    .constdata                               0x08003ea8   Section       16  system_stm32f4xx.o(.constdata)
    .constdata                               0x08003eb8   Section      360  pwmout_api.o(.constdata)
    PinMap_PWM                               0x08003eb8   Data         360  pwmout_api.o(.constdata)
    .constdata                               0x08004020   Section      254  serial_api.o(.constdata)
    PinMap_UART_TX                           0x08004020   Data          72  serial_api.o(.constdata)
    PinMap_UART_RX                           0x08004068   Data          72  serial_api.o(.constdata)
    .constdata                               0x08004120   Section      268  i2c_api.o(.constdata)
    PinMap_I2C_SDA                           0x08004120   Data          72  i2c_api.o(.constdata)
    PinMap_I2C_SCL                           0x08004168   Data          60  i2c_api.o(.constdata)
    .constdata                               0x0800422c   Section      196  pinmap.o(.constdata)
    gpio_mode                                0x0800422c   Data          52  pinmap.o(.constdata)
    .constdata                               0x080042f0   Section       64  ctype_c.o(.constdata)
    .init_array                              0x08004350   Section        4  main.o(.init_array)
    .init_array                              0x08004354   Section        0  cpp_init.o(.init_array)
    .data                                    0x20000194   Section       32  main.o(.data)
    .data                                    0x200001b4   Section        4  stm32f4xx_hal.o(.data)
    uwTick                                   0x200001b4   Data           4  stm32f4xx_hal.o(.data)
    .data                                    0x200001b8   Section        4  system_stm32f4xx.o(.data)
    .data                                    0x200001bc   Section        4  hal_tick.o(.data)
    .data                                    0x200001c0   Section        4  retarget.o(.data)
    n                                        0x200001c0   Data           4  retarget.o(.data)
    .data                                    0x200001c4   Section        8  serial_api.o(.data)
    irq_handler                              0x200001c8   Data           4  serial_api.o(.data)
    .data                                    0x200001cc   Section        4  I2C.o(.data)
    .data                                    0x200001d0   Section        8  us_ticker_api.o(.data)
    head                                     0x200001d0   Data           4  us_ticker_api.o(.data)
    event_handler                            0x200001d4   Data           4  us_ticker_api.o(.data)
    .data                                    0x200001d8   Section       12  i2c_api.o(.data)
    .data                                    0x200001e4   Section        4  us_ticker.o(.data)
    us_ticker_inited                         0x200001e4   Data           4  us_ticker.o(.data)
    .data                                    0x200001e8   Section        4  FileBase.o(.data)
    .bss                                     0x200001ec   Section       56  main.o(.bss)
    .bss                                     0x20000224   Section       60  hal_tick.o(.bss)
    .bss                                     0x20000260   Section       64  retarget.o(.bss)
    filehandles                              0x20000260   Data          64  retarget.o(.bss)
    .bss                                     0x200002a0   Section       60  pwmout_api.o(.bss)
    TimHandle                                0x200002a0   Data          60  pwmout_api.o(.bss)
    .bss                                     0x200002dc   Section      100  serial_api.o(.bss)
    serial_irq_ids                           0x200002dc   Data          12  serial_api.o(.bss)
    .bss                                     0x20000340   Section       56  i2c_api.o(.bss)
    .bss                                     0x20000378   Section       60  us_ticker.o(.bss)
    TimMasterHandle                          0x20000378   Data          60  us_ticker.o(.bss)
    .bss                                     0x200003b4   Section       20  stdout_f.o(.bss)
    .bss                                     0x200003c8   Section       20  stderr_f.o(.bss)

    Global Symbols

    Symbol Name                              Value     Ov Type        Size  Object(Section)

    BuildAttributes$$THM_ISAv4$E$P$D$K$B$S$7EM$VFPi3$EXTD16$VFPS$VFMA$PE$A:L22UL41UL21$X:L11$S22US41US21$IEEE1$IW$USESV6$~STKCKD$USESV7$~SHL$OTIME$ROPI$EBA8$UX$MICROLIB$REQ8$PRES8$EABIv2 0x00000000   Number         0  anon$$obj.o ABSOLUTE
    __ARM_use_no_argv                        0x00000000   Number         0  main.o ABSOLUTE
    _printf_a                                0x00000000   Number         0  stubs.o ABSOLUTE
    _printf_c                                0x00000000   Number         0  stubs.o ABSOLUTE
    _printf_charcount                        0x00000000   Number         0  stubs.o ABSOLUTE
    _printf_d                                0x00000000   Number         0  stubs.o ABSOLUTE
    _printf_e                                0x00000000   Number         0  stubs.o ABSOLUTE
    _printf_f                                0x00000000   Number         0  stubs.o ABSOLUTE
    _printf_flags                            0x00000000   Number         0  stubs.o ABSOLUTE
    _printf_fp_dec                           0x00000000   Number         0  stubs.o ABSOLUTE
    _printf_fp_hex                           0x00000000   Number         0  stubs.o ABSOLUTE
    _printf_g                                0x00000000   Number         0  stubs.o ABSOLUTE
    _printf_i                                0x00000000   Number         0  stubs.o ABSOLUTE
    _printf_int_dec                          0x00000000   Number         0  stubs.o ABSOLUTE
    _printf_l                                0x00000000   Number         0  stubs.o ABSOLUTE
    _printf_lc                               0x00000000   Number         0  stubs.o ABSOLUTE
    _printf_ll                               0x00000000   Number         0  stubs.o ABSOLUTE
    _printf_lld                              0x00000000   Number         0  stubs.o ABSOLUTE
    _printf_lli                              0x00000000   Number         0  stubs.o ABSOLUTE
    _printf_llo                              0x00000000   Number         0  stubs.o ABSOLUTE
    _printf_llu                              0x00000000   Number         0  stubs.o ABSOLUTE
    _printf_llx                              0x00000000   Number         0  stubs.o ABSOLUTE
    _printf_longlong_dec                     0x00000000   Number         0  stubs.o ABSOLUTE
    _printf_longlong_hex                     0x00000000   Number         0  stubs.o ABSOLUTE
    _printf_longlong_oct                     0x00000000   Number         0  stubs.o ABSOLUTE
    _printf_ls                               0x00000000   Number         0  stubs.o ABSOLUTE
    _printf_mbtowc                           0x00000000   Number         0  stubs.o ABSOLUTE
    _printf_n                                0x00000000   Number         0  stubs.o ABSOLUTE
    _printf_o                                0x00000000   Number         0  stubs.o ABSOLUTE
    _printf_p                                0x00000000   Number         0  stubs.o ABSOLUTE
    _printf_percent                          0x00000000   Number         0  stubs.o ABSOLUTE
    _printf_pre_padding                      0x00000000   Number         0  stubs.o ABSOLUTE
    _printf_return_value                     0x00000000   Number         0  stubs.o ABSOLUTE
    _printf_s                                0x00000000   Number         0  stubs.o ABSOLUTE
    _printf_sizespec                         0x00000000   Number         0  stubs.o ABSOLUTE
    _printf_str                              0x00000000   Number         0  stubs.o ABSOLUTE
    _printf_truncate_signed                  0x00000000   Number         0  stubs.o ABSOLUTE
    _printf_truncate_unsigned                0x00000000   Number         0  stubs.o ABSOLUTE
    _printf_u                                0x00000000   Number         0  stubs.o ABSOLUTE
    _printf_wc                               0x00000000   Number         0  stubs.o ABSOLUTE
    _printf_wctomb                           0x00000000   Number         0  stubs.o ABSOLUTE
    _printf_widthprec                        0x00000000   Number         0  stubs.o ABSOLUTE
    _printf_x                                0x00000000   Number         0  stubs.o ABSOLUTE
    __ARM::default_unexpected_handler()       - Undefined Weak Reference
    __ARM_exceptions_buffer_required          - Undefined Weak Reference
    __cxa_finalize                            - Undefined Weak Reference
    __decompress                              - Undefined Weak Reference
    _clock_init                               - Undefined Weak Reference
    _microlib_exit                            - Undefined Weak Reference
    _scanf_longlong                           - Undefined Weak Reference
    _scanf_real                               - Undefined Weak Reference
    _scanf_string                             - Undefined Weak Reference
    __Vectors_Size                           0x00000194   Number         0  startup_stm32f401xe.o ABSOLUTE
    __Vectors                                0x08000000   Data           4  startup_stm32f401xe.o(RESET)
    __Vectors_End                            0x08000194   Data           0  startup_stm32f401xe.o(RESET)
    __main                                   0x08000195   Thumb Code     0  entry.o(.ARM.Collect$$$$00000000)
    _main_stk                                0x08000195   Thumb Code     0  entry2.o(.ARM.Collect$$$$00000001)
    _main_scatterload                        0x08000199   Thumb Code     0  entry5.o(.ARM.Collect$$$$00000004)
    __main_after_scatterload                 0x0800019d   Thumb Code     0  entry5.o(.ARM.Collect$$$$00000004)
    __use_full_stdio                         0x0800019d   Thumb Code     0  entry6b.o(.ARM.Collect$$$$00000006)
    __main_after_initio                      0x080001a1   Thumb Code     0  entry6b.o(.ARM.Collect$$$$00000006)
    _main_clock                              0x080001a1   Thumb Code     0  entry7b.o(.ARM.Collect$$$$00000008)
    _main_cpp_init$empty                     0x080001a1   Thumb Code     0  entry8a.o(.ARM.Collect$$$$00000009)
    _main_cpp_init                           0x080001a5   Thumb Code     0  entry8b.o(.ARM.Collect$$$$0000000A)
    _main_init                               0x080001a5   Thumb Code     0  entry9a.o(.ARM.Collect$$$$0000000B)
    __rt_final_cpp                           0x080001ad   Thumb Code     0  entry10a.o(.ARM.Collect$$$$0000000D)
    __rt_final_exit                          0x080001ad   Thumb Code     0  entry11a.o(.ARM.Collect$$$$0000000F)
    mapFloat(int, int, int, float, float)    0x080001b1   Thumb Code    50  main.o(.text)
    PIDInit(PID*)                            0x080001e3   Thumb Code    14  main.o(.text)
    PIDCalc(PID*, float)                     0x080001f1   Thumb Code    82  main.o(.text)
    get_temper()                             0x08000243   Thumb Code   472  main.o(.text)
    compare_temper()                         0x0800041b   Thumb Code   198  main.o(.text)
    $Super$$main                             0x080004e1   Thumb Code   126  main.o(.text)
    Reset_Handler                            0x080005bd   Thumb Code     8  startup_stm32f401xe.o(.text)
    NMI_Handler                              0x080005c5   Thumb Code     2  startup_stm32f401xe.o(.text)
    HardFault_Handler                        0x080005c7   Thumb Code     2  startup_stm32f401xe.o(.text)
    MemManage_Handler                        0x080005c9   Thumb Code     2  startup_stm32f401xe.o(.text)
    BusFault_Handler                         0x080005cb   Thumb Code     2  startup_stm32f401xe.o(.text)
    UsageFault_Handler                       0x080005cd   Thumb Code     2  startup_stm32f401xe.o(.text)
    SVC_Handler                              0x080005cf   Thumb Code     2  startup_stm32f401xe.o(.text)
    DebugMon_Handler                         0x080005d1   Thumb Code     2  startup_stm32f401xe.o(.text)
    PendSV_Handler                           0x080005d3   Thumb Code     2  startup_stm32f401xe.o(.text)
    SysTick_Handler                          0x080005d5   Thumb Code     2  startup_stm32f401xe.o(.text)
    ADC_IRQHandler                           0x080005d7   Thumb Code     0  startup_stm32f401xe.o(.text)
    DMA1_Stream0_IRQHandler                  0x080005d7   Thumb Code     0  startup_stm32f401xe.o(.text)
    DMA1_Stream1_IRQHandler                  0x080005d7   Thumb Code     0  startup_stm32f401xe.o(.text)
    DMA1_Stream2_IRQHandler                  0x080005d7   Thumb Code     0  startup_stm32f401xe.o(.text)
    DMA1_Stream3_IRQHandler                  0x080005d7   Thumb Code     0  startup_stm32f401xe.o(.text)
    DMA1_Stream4_IRQHandler                  0x080005d7   Thumb Code     0  startup_stm32f401xe.o(.text)
    DMA1_Stream5_IRQHandler                  0x080005d7   Thumb Code     0  startup_stm32f401xe.o(.text)
    DMA1_Stream6_IRQHandler                  0x080005d7   Thumb Code     0  startup_stm32f401xe.o(.text)
    DMA1_Stream7_IRQHandler                  0x080005d7   Thumb Code     0  startup_stm32f401xe.o(.text)
    DMA2_Stream0_IRQHandler                  0x080005d7   Thumb Code     0  startup_stm32f401xe.o(.text)
    DMA2_Stream1_IRQHandler                  0x080005d7   Thumb Code     0  startup_stm32f401xe.o(.text)
    DMA2_Stream2_IRQHandler                  0x080005d7   Thumb Code     0  startup_stm32f401xe.o(.text)
    DMA2_Stream3_IRQHandler                  0x080005d7   Thumb Code     0  startup_stm32f401xe.o(.text)
    DMA2_Stream4_IRQHandler                  0x080005d7   Thumb Code     0  startup_stm32f401xe.o(.text)
    DMA2_Stream5_IRQHandler                  0x080005d7   Thumb Code     0  startup_stm32f401xe.o(.text)
    DMA2_Stream6_IRQHandler                  0x080005d7   Thumb Code     0  startup_stm32f401xe.o(.text)
    DMA2_Stream7_IRQHandler                  0x080005d7   Thumb Code     0  startup_stm32f401xe.o(.text)
    EXTI0_IRQHandler                         0x080005d7   Thumb Code     0  startup_stm32f401xe.o(.text)
    EXTI15_10_IRQHandler                     0x080005d7   Thumb Code     0  startup_stm32f401xe.o(.text)
    EXTI1_IRQHandler                         0x080005d7   Thumb Code     0  startup_stm32f401xe.o(.text)
    EXTI2_IRQHandler                         0x080005d7   Thumb Code     0  startup_stm32f401xe.o(.text)
    EXTI3_IRQHandler                         0x080005d7   Thumb Code     0  startup_stm32f401xe.o(.text)
    EXTI4_IRQHandler                         0x080005d7   Thumb Code     0  startup_stm32f401xe.o(.text)
    EXTI9_5_IRQHandler                       0x080005d7   Thumb Code     0  startup_stm32f401xe.o(.text)
    FLASH_IRQHandler                         0x080005d7   Thumb Code     0  startup_stm32f401xe.o(.text)
    FPU_IRQHandler                           0x080005d7   Thumb Code     0  startup_stm32f401xe.o(.text)
    I2C1_ER_IRQHandler                       0x080005d7   Thumb Code     0  startup_stm32f401xe.o(.text)
    I2C1_EV_IRQHandler                       0x080005d7   Thumb Code     0  startup_stm32f401xe.o(.text)
    I2C2_ER_IRQHandler                       0x080005d7   Thumb Code     0  startup_stm32f401xe.o(.text)
    I2C2_EV_IRQHandler                       0x080005d7   Thumb Code     0  startup_stm32f401xe.o(.text)
    I2C3_ER_IRQHandler                       0x080005d7   Thumb Code     0  startup_stm32f401xe.o(.text)
    I2C3_EV_IRQHandler                       0x080005d7   Thumb Code     0  startup_stm32f401xe.o(.text)
    OTG_FS_IRQHandler                        0x080005d7   Thumb Code     0  startup_stm32f401xe.o(.text)
    OTG_FS_WKUP_IRQHandler                   0x080005d7   Thumb Code     0  startup_stm32f401xe.o(.text)
    PVD_IRQHandler                           0x080005d7   Thumb Code     0  startup_stm32f401xe.o(.text)
    RCC_IRQHandler                           0x080005d7   Thumb Code     0  startup_stm32f401xe.o(.text)
    RTC_Alarm_IRQHandler                     0x080005d7   Thumb Code     0  startup_stm32f401xe.o(.text)
    RTC_WKUP_IRQHandler                      0x080005d7   Thumb Code     0  startup_stm32f401xe.o(.text)
    SDIO_IRQHandler                          0x080005d7   Thumb Code     0  startup_stm32f401xe.o(.text)
    SPI1_IRQHandler                          0x080005d7   Thumb Code     0  startup_stm32f401xe.o(.text)
    SPI2_IRQHandler                          0x080005d7   Thumb Code     0  startup_stm32f401xe.o(.text)
    SPI3_IRQHandler                          0x080005d7   Thumb Code     0  startup_stm32f401xe.o(.text)
    SPI4_IRQHandler                          0x080005d7   Thumb Code     0  startup_stm32f401xe.o(.text)
    TAMP_STAMP_IRQHandler                    0x080005d7   Thumb Code     0  startup_stm32f401xe.o(.text)
    TIM1_BRK_TIM9_IRQHandler                 0x080005d7   Thumb Code     0  startup_stm32f401xe.o(.text)
    TIM1_CC_IRQHandler                       0x080005d7   Thumb Code     0  startup_stm32f401xe.o(.text)
    TIM1_TRG_COM_TIM11_IRQHandler            0x080005d7   Thumb Code     0  startup_stm32f401xe.o(.text)
    TIM1_UP_TIM10_IRQHandler                 0x080005d7   Thumb Code     0  startup_stm32f401xe.o(.text)
    TIM2_IRQHandler                          0x080005d7   Thumb Code     0  startup_stm32f401xe.o(.text)
    TIM3_IRQHandler                          0x080005d7   Thumb Code     0  startup_stm32f401xe.o(.text)
    TIM4_IRQHandler                          0x080005d7   Thumb Code     0  startup_stm32f401xe.o(.text)
    TIM5_IRQHandler                          0x080005d7   Thumb Code     0  startup_stm32f401xe.o(.text)
    USART1_IRQHandler                        0x080005d7   Thumb Code     0  startup_stm32f401xe.o(.text)
    USART2_IRQHandler                        0x080005d7   Thumb Code     0  startup_stm32f401xe.o(.text)
    USART6_IRQHandler                        0x080005d7   Thumb Code     0  startup_stm32f401xe.o(.text)
    WWDG_IRQHandler                          0x080005d7   Thumb Code     0  startup_stm32f401xe.o(.text)
    _initio                                  0x080005e1   Thumb Code    20  initio_oe.o(.text)
    ___aeabi_memcpy4$move                    0x08000601   Thumb Code     0  memmovea.o(.text)
    ___aeabi_memcpy8$move                    0x08000601   Thumb Code     0  memmovea.o(.text)
    __aeabi_memcpy                           0x08000601   Thumb Code    64  memmovea.o(.text)
    __aeabi_memmove                          0x08000601   Thumb Code     0  memmovea.o(.text)
    __aeabi_memmove4                         0x08000601   Thumb Code     0  memmovea.o(.text)
    __aeabi_memmove8                         0x08000601   Thumb Code     0  memmovea.o(.text)
    __aeabi_memset                           0x08000641   Thumb Code    14  memseta.o(.text)
    __aeabi_memset4                          0x08000641   Thumb Code     0  memseta.o(.text)
    __aeabi_memset8                          0x08000641   Thumb Code     0  memseta.o(.text)
    __aeabi_memclr                           0x0800064f   Thumb Code     4  memseta.o(.text)
    __aeabi_memclr4                          0x0800064f   Thumb Code     0  memseta.o(.text)
    __aeabi_memclr8                          0x0800064f   Thumb Code     0  memseta.o(.text)
    _memset$wrapper                          0x08000653   Thumb Code    18  memseta.o(.text)
    strlen                                   0x08000665   Thumb Code    14  strlen.o(.text)
    strcmp                                   0x08000673   Thumb Code    28  strcmp.o(.text)
    strncmp                                  0x0800068f   Thumb Code    30  strncmp.o(.text)
    __0sscanf                                0x080006ad   Thumb Code    48  __0sscanf.o(.text)
    _scanf_int                               0x080006e5   Thumb Code   332  _scanf_int.o(.text)
    __cpp_initialize__aeabi_                 0x08000831   Thumb Code    22  cpp_init.o(.text)
    __aeabi_f2d                              0x08000851   Thumb Code    38  f2d.o(.text)
    fputc                                    0x08000877   Thumb Code    40  fputc_fp.o(.text)
    __aeabi_uidiv                            0x0800089f   Thumb Code     0  uidiv.o(.text)
    __aeabi_uidivmod                         0x0800089f   Thumb Code    44  uidiv.o(.text)
    __aeabi_uldivmod                         0x080008cb   Thumb Code    98  uldiv.o(.text)
    _chval                                   0x0800092d   Thumb Code    28  _chval.o(.text)
    __vfscanf_char                           0x08000955   Thumb Code    20  scanf_char.o(.text)
    _sgetc                                   0x08000971   Thumb Code    30  _sgetc.o(.text)
    _sbackspace                              0x0800098f   Thumb Code    34  _sgetc.o(.text)
    __I$use$fp                               0x080009b1   Thumb Code     0  iusefp.o(.text)
    __aeabi_dadd                             0x080009b1   Thumb Code   322  dadd.o(.text)
    __aeabi_dsub                             0x08000af3   Thumb Code     6  dadd.o(.text)
    __aeabi_drsub                            0x08000af9   Thumb Code     6  dadd.o(.text)
    __aeabi_dmul                             0x08000aff   Thumb Code   228  dmul.o(.text)
    __aeabi_ddiv                             0x08000be3   Thumb Code   222  ddiv.o(.text)
    __aeabi_d2ulz                            0x08000cc1   Thumb Code    48  dfixul.o(.text)
    __aeabi_cdrcmple                         0x08000cf1   Thumb Code    48  cdrcmple.o(.text)
    __scatterload                            0x08000d21   Thumb Code    28  init.o(.text)
    __scatterload_rt2                        0x08000d21   Thumb Code     0  init.o(.text)
    __aeabi_llsl                             0x08000d45   Thumb Code    30  llshl.o(.text)
    _ll_shift_l                              0x08000d45   Thumb Code     0  llshl.o(.text)
    __aeabi_llsr                             0x08000d63   Thumb Code    32  llushr.o(.text)
    _ll_ushift_r                             0x08000d63   Thumb Code     0  llushr.o(.text)
    __aeabi_lasr                             0x08000d83   Thumb Code    36  llsshr.o(.text)
    _ll_sshift_r                             0x08000d83   Thumb Code     0  llsshr.o(.text)
    isspace                                  0x08000da7   Thumb Code    10  isspace_c.o(.text)
    __vfscanf                                0x08000db1   Thumb Code   808  _scanf.o(.text)
    _double_round                            0x080010dd   Thumb Code    30  depilogue.o(.text)
    _double_epilogue                         0x080010fb   Thumb Code   156  depilogue.o(.text)
    __ctype_lookup                           0x08001199   Thumb Code    34  ctype_c.o(.text)
    main                                     0x080011c1   Thumb Code    18  retarget.o(i.$Sub$$main)
    HAL_GPIO_Init                            0x080011d5   Thumb Code   560  stm32f4xx_hal_gpio.o(i.HAL_GPIO_Init)
    HAL_GetTick                              0x0800141d   Thumb Code     6  stm32f4xx_hal.o(i.HAL_GetTick)
    HAL_I2C_Init                             0x08001429   Thumb Code   244  stm32f4xx_hal_i2c.o(i.HAL_I2C_Init)
    HAL_I2C_MspInit                          0x08001525   Thumb Code     2  stm32f4xx_hal_i2c.o(i.HAL_I2C_MspInit)
    HAL_IncTick                              0x08001529   Thumb Code    10  stm32f4xx_hal.o(i.HAL_IncTick)
    HAL_Init                                 0x08001539   Thumb Code    48  stm32f4xx_hal.o(i.HAL_Init)
    HAL_InitTick                             0x0800156d   Thumb Code   134  hal_tick.o(i.HAL_InitTick)
    HAL_MspInit                              0x08001619   Thumb Code     2  stm32f4xx_hal.o(i.HAL_MspInit)
    HAL_NVIC_SetPriorityGrouping             0x0800161d   Thumb Code    30  stm32f4xx_hal_cortex.o(i.HAL_NVIC_SetPriorityGrouping)
    HAL_RCC_ClockConfig                      0x08001641   Thumb Code   498  stm32f4xx_hal_rcc.o(i.HAL_RCC_ClockConfig)
    HAL_RCC_GetHCLKFreq                      0x08001841   Thumb Code   172  stm32f4xx_hal_rcc.o(i.HAL_RCC_GetHCLKFreq)
    HAL_RCC_GetPCLK1Freq                     0x08001901   Thumb Code    36  stm32f4xx_hal_rcc.o(i.HAL_RCC_GetPCLK1Freq)
    HAL_RCC_GetPCLK2Freq                     0x0800192d   Thumb Code    36  stm32f4xx_hal_rcc.o(i.HAL_RCC_GetPCLK2Freq)
    HAL_RCC_OscConfig                        0x08001959   Thumb Code   962  stm32f4xx_hal_rcc.o(i.HAL_RCC_OscConfig)
    HAL_TIMEx_PWMN_Start                     0x08001d45   Thumb Code    44  stm32f4xx_hal_tim_ex.o(i.HAL_TIMEx_PWMN_Start)
    HAL_TIM_OC_Init                          0x08001d71   Thumb Code    50  stm32f4xx_hal_tim.o(i.HAL_TIM_OC_Init)
    HAL_TIM_OC_MspInit                       0x08001da3   Thumb Code     2  stm32f4xx_hal_tim.o(i.HAL_TIM_OC_MspInit)
    HAL_TIM_OC_Start                         0x08001da5   Thumb Code    54  stm32f4xx_hal_tim.o(i.HAL_TIM_OC_Start)
    HAL_TIM_PWM_ConfigChannel                0x08001ddd   Thumb Code   526  stm32f4xx_hal_tim.o(i.HAL_TIM_PWM_ConfigChannel)
    HAL_TIM_PWM_Init                         0x08001ff1   Thumb Code    50  stm32f4xx_hal_tim.o(i.HAL_TIM_PWM_Init)
    HAL_TIM_PWM_MspInit                      0x08002023   Thumb Code     2  stm32f4xx_hal_tim.o(i.HAL_TIM_PWM_MspInit)
    HAL_TIM_PWM_Start                        0x08002025   Thumb Code    54  stm32f4xx_hal_tim.o(i.HAL_TIM_PWM_Start)
    HAL_UART_Init                            0x0800205b   Thumb Code    94  stm32f4xx_hal_uart.o(i.HAL_UART_Init)
    HAL_UART_MspInit                         0x080020b9   Thumb Code     2  stm32f4xx_hal_uart.o(i.HAL_UART_MspInit)
    NVIC_SetVector                           0x080020bd   Thumb Code   102  cmsis_nvic.o(i.NVIC_SetVector)
    SetSysClock_PLL_HSE                      0x08002129   Thumb Code   116  system_stm32f4xx.o(i.SetSysClock_PLL_HSE)
    Set_GPIO_Clock                           0x080021a5   Thumb Code    86  pinmap.o(i.Set_GPIO_Clock)
    SystemCoreClockUpdate                    0x08002219   Thumb Code   112  system_stm32f4xx.o(i.SystemCoreClockUpdate)
    SystemInit                               0x0800229d   Thumb Code   210  system_stm32f4xx.o(i.SystemInit)
    TIM_Base_SetConfig                       0x0800239d   Thumb Code   132  stm32f4xx_hal_tim.o(i.TIM_Base_SetConfig)
    mbed::I2C::read(int, char*, int, bool)   0x08002649   Thumb Code    68  I2C.o(i._ZN4mbed3I2C4readEiPcib)
    mbed::I2C::write(int, const char*, int, bool) 0x08002691   Thumb Code    68  I2C.o(i._ZN4mbed3I2C5writeEiPKcib)
    mbed::I2C::I2C(PinName, PinName)         0x080026d9   Thumb Code    28  I2C.o(i._ZN4mbed3I2CC1E7PinNameS1_)
    mbed::I2C::I2C__sub_object(PinName, PinName) 0x080026d9   Thumb Code     0  I2C.o(i._ZN4mbed3I2CC1E7PinNameS1_)
    mbed::FileBase::getPathType()            0x080026fd   Thumb Code     4  FileBase.o(i._ZN4mbed8FileBase11getPathTypeEv)
    mbed::FileBase::lookup(const char*, unsigned) 0x08002701   Thumb Code    50  FileBase.o(i._ZN4mbed8FileBase6lookupEPKcj)
    mbed::FilePath::fileSystem()             0x08002739   Thumb Code    24  FilePath.o(i._ZN4mbed8FilePath10fileSystemEv)
    mbed::FilePath::file()                   0x08002751   Thumb Code    28  FilePath.o(i._ZN4mbed8FilePath4fileEv)
    mbed::FilePath::exists()                 0x0800276d   Thumb Code    10  FilePath.o(i._ZN4mbed8FilePath6existsEv)
    mbed::FilePath::isFile()                 0x08002777   Thumb Code    24  FilePath.o(i._ZN4mbed8FilePath6isFileEv)
    mbed::FilePath::fileName()               0x0800278f   Thumb Code     4  FilePath.o(i._ZN4mbed8FilePath8fileNameEv)
    mbed::FilePath::FilePath(const char*)    0x08002793   Thumb Code    64  FilePath.o(i._ZN4mbed8FilePathC1EPKc)
    mbed::FilePath::FilePath__sub_object(const char*) 0x08002793   Thumb Code     0  FilePath.o(i._ZN4mbed8FilePathC1EPKc)
    __0fprintf                               0x080027d5   Thumb Code    22  printfa.o(i.__0fprintf)
    __1fprintf                               0x080027d5   Thumb Code     0  printfa.o(i.__0fprintf)
    __2fprintf                               0x080027d5   Thumb Code     0  printfa.o(i.__0fprintf)
    __c89fprintf                             0x080027d5   Thumb Code     0  printfa.o(i.__0fprintf)
    fprintf                                  0x080027d5   Thumb Code     0  printfa.o(i.__0fprintf)
    __0printf                                0x080027f1   Thumb Code    22  printfa.o(i.__0printf)
    __1printf                                0x080027f1   Thumb Code     0  printfa.o(i.__0printf)
    __2printf                                0x080027f1   Thumb Code     0  printfa.o(i.__0printf)
    __c89printf                              0x080027f1   Thumb Code     0  printfa.o(i.__0printf)
    printf                                   0x080027f1   Thumb Code     0  printfa.o(i.__0printf)
    __0vfprintf                              0x08002811   Thumb Code    20  printfa.o(i.__0vfprintf)
    __1vfprintf                              0x08002811   Thumb Code     0  printfa.o(i.__0vfprintf)
    __2vfprintf                              0x08002811   Thumb Code     0  printfa.o(i.__0vfprintf)
    __c89vfprintf                            0x08002811   Thumb Code     0  printfa.o(i.__0vfprintf)
    vfprintf                                 0x08002811   Thumb Code     0  printfa.o(i.__0vfprintf)
    __scatterload_copy                       0x08002829   Thumb Code    14  handlers.o(i.__scatterload_copy)
    __scatterload_null                       0x08002837   Thumb Code     2  handlers.o(i.__scatterload_null)
    __scatterload_zeroinit                   0x08002839   Thumb Code    14  handlers.o(i.__scatterload_zeroinit)
    fflush                                   0x08002847   Thumb Code    24  fflush_f.o(i._fflush$full)
    _sys_open                                0x080030f5   Thumb Code   212  retarget.o(i._sys_open)
    _sys_seek                                0x080031d9   Thumb Code    36  retarget.o(i._sys_seek)
    _sys_write                               0x08003201   Thumb Code    82  retarget.o(i._sys_write)
    error                                    0x08003261   Thumb Code    20  error.o(i.error)
    exit                                     0x08003279   Thumb Code    24  exit.o(i.exit)
    i2c_frequency                            0x08003299   Thumb Code    98  i2c_api.o(i.i2c_frequency)
    i2c_init                                 0x08003309   Thumb Code   408  i2c_api.o(i.i2c_init)
    i2c_read                                 0x080034e5   Thumb Code   294  i2c_api.o(i.i2c_read)
    i2c_write                                0x08003611   Thumb Code   268  i2c_api.o(i.i2c_write)
    mbed_assert_internal                     0x08003721   Thumb Code    24  assert.o(i.mbed_assert_internal)
    mbed_die                                 0x08003771   Thumb Code    16  board.o(i.mbed_die)
    mbed_main                                0x08003781   Thumb Code     2  retarget.o(i.mbed_main)
    mbed_sdk_init                            0x08003783   Thumb Code    14  mbed_overrides.o(i.mbed_sdk_init)
    pin_function                             0x08003791   Thumb Code    78  pinmap.o(i.pin_function)
    pin_mode                                 0x080037fd   Thumb Code    62  pinmap.o(i.pin_mode)
    pinmap_merge                             0x08003855   Thumb Code    34  pinmap_common.o(i.pinmap_merge)
    pinmap_peripheral                        0x0800388d   Thumb Code    58  pinmap_common.o(i.pinmap_peripheral)
    pinmap_pinout                            0x080038e9   Thumb Code    66  pinmap_common.o(i.pinmap_pinout)
    pwmout_init                              0x08003941   Thumb Code   196  pwmout_api.o(i.pwmout_init)
    pwmout_period_ms                         0x08003a35   Thumb Code    10  pwmout_api.o(i.pwmout_period_ms)
    pwmout_period_us                         0x08003a41   Thumb Code   148  pwmout_api.o(i.pwmout_period_us)
    pwmout_pulsewidth_ms                     0x08003ae9   Thumb Code    30  pwmout_api.o(i.pwmout_pulsewidth_ms)
    pwmout_write                             0x08003b09   Thumb Code   204  pwmout_api.o(i.pwmout_write)
    serial_init                              0x08003be1   Thumb Code   296  serial_api.o(i.serial_init)
    serial_putc                              0x08003d49   Thumb Code    30  serial_api.o(i.serial_putc)
    timer_irq_handler                        0x08003d6d   Thumb Code    76  hal_tick.o(i.timer_irq_handler)
    us_ticker_clear_interrupt                0x08003dc1   Thumb Code    12  us_ticker.o(i.us_ticker_clear_interrupt)
    us_ticker_disable_interrupt              0x08003dd1   Thumb Code    14  us_ticker.o(i.us_ticker_disable_interrupt)
    us_ticker_irq_handler                    0x08003de5   Thumb Code    78  us_ticker_api.o(i.us_ticker_irq_handler)
    us_ticker_read                           0x08003e39   Thumb Code    30  us_ticker.o(i.us_ticker_read)
    us_ticker_set_interrupt                  0x08003e69   Thumb Code    16  us_ticker.o(i.us_ticker_set_interrupt)
    wait_ms                                  0x08003e7d   Thumb Code    28  wait_api.o(i.wait_ms)
    APBAHBPrescTable                         0x08003e98   Data          16  stm32f4xx_hal_rcc.o(.constdata)
    AHBPrescTable                            0x08003ea8   Data          16  system_stm32f4xx.o(.constdata)
    __ctype_categories                       0x080042f0   Data          64  ctype_c.o(.constdata)
    Region$$Table$$Base                      0x08004330   Number         0  anon$$obj.o(Region$$Table)
    Region$$Table$$Limit                     0x08004350   Number         0  anon$$obj.o(Region$$Table)
    SHT$$INIT_ARRAY$$Base                    0x08004350   Number         0  main.o(.init_array)
    SHT$$INIT_ARRAY$$Limit                   0x08004354   Number         0  cpp_init.o(.init_array)
    rout                                     0x20000194   Data           4  main.o(.data)
    rin                                      0x20000198   Data           4  main.o(.data)
    flag                                     0x2000019c   Data           1  main.o(.data)
    flag_1                                   0x2000019d   Data           1  main.o(.data)
    high_time                                0x200001a0   Data           4  main.o(.data)
    low_time                                 0x200001a4   Data           4  main.o(.data)
    count                                    0x200001a8   Data           4  main.o(.data)
    temper                                   0x200001ac   Data           4  main.o(.data)
    s                                        0x200001b0   Data           4  main.o(.data)
    SystemCoreClock                          0x200001b8   Data           4  system_stm32f4xx.o(.data)
    PreviousVal                              0x200001bc   Data           4  hal_tick.o(.data)
    stdio_uart_inited                        0x200001c4   Data           4  serial_api.o(.data)
    mbed::I2C::_owner                        0x200001cc   Data           4  I2C.o(.data)
    i2c1_inited                              0x200001d8   Data           4  i2c_api.o(.data)
    i2c2_inited                              0x200001dc   Data           4  i2c_api.o(.data)
    i2c3_inited                              0x200001e0   Data           4  i2c_api.o(.data)
    mbed::FileBase::_head                    0x200001e8   Data           4  FileBase.o(.data)
    HTS221                                   0x200001ec   Data          12  main.o(.bss)
    spid                                     0x200001f8   Data          28  main.o(.bss)
    mypwm                                    0x20000214   Data          16  main.o(.bss)
    TimMasterHandle                          0x20000224   Data          60  hal_tick.o(.bss)
    UartHandle                               0x200002e8   Data          60  serial_api.o(.bss)
    stdio_uart                               0x20000324   Data          28  serial_api.o(.bss)
    I2cHandle                                0x20000340   Data          56  i2c_api.o(.bss)
    __stdout                                 0x200003b4   Data          20  stdout_f.o(.bss)
    __stderr                                 0x200003c8   Data          20  stderr_f.o(.bss)
    Image$$RW_IRAM1$$ZI$$Limit               0x200003dc   Number         0  anon$$obj.o ABSOLUTE
    __heap_limit                             0x20017c00   Number         0  startup_stm32f401xe.o ABSOLUTE
    __initial_sp                             0x20018000   Number         0  startup_stm32f401xe.o ABSOLUTE



==============================================================================

Memory Map of the image

  Image Entry point : 0x08000195

  Load Region LR_IROM1 (Base: 0x08000000, Size: 0x000043ac, Max: 0x00080000, ABSOLUTE)

    Execution Region ER_IROM1 (Base: 0x08000000, Size: 0x00004354, Max: 0x00080000, ABSOLUTE)

    Base Addr    Size         Type   Attr      Idx    E Section Name        Object

    0x08000000   0x00000194   Data   RO         1133    RESET               startup_stm32f401xe.o
    0x08000194   0x00000000   Code   RO         2735  * .ARM.Collect$$$$00000000  mc_w.l(entry.o)
    0x08000194   0x00000004   Code   RO         3065    .ARM.Collect$$$$00000001  mc_w.l(entry2.o)
    0x08000198   0x00000004   Code   RO         3068    .ARM.Collect$$$$00000004  mc_w.l(entry5.o)
    0x0800019c   0x00000004   Code   RO         2737    .ARM.Collect$$$$00000006  mc_w.l(entry6b.o)
    0x080001a0   0x00000000   Code   RO         3070    .ARM.Collect$$$$00000008  mc_w.l(entry7b.o)
    0x080001a0   0x00000004   Code   RO         3071    .ARM.Collect$$$$00000009  mc_w.l(entry8a.o)
    0x080001a4   0x00000000   Code   RO         3072    .ARM.Collect$$$$0000000A  mc_w.l(entry8b.o)
    0x080001a4   0x00000008   Code   RO         3073    .ARM.Collect$$$$0000000B  mc_w.l(entry9a.o)
    0x080001ac   0x00000000   Code   RO         3075    .ARM.Collect$$$$0000000D  mc_w.l(entry10a.o)
    0x080001ac   0x00000000   Code   RO         3077    .ARM.Collect$$$$0000000F  mc_w.l(entry11a.o)
    0x080001ac   0x00000004   Code   RO         3066    .ARM.Collect$$$$00002712  mc_w.l(entry2.o)
    0x080001b0   0x0000040c   Code   RO            3    .text               main.o
    0x080005bc   0x00000024   Code   RO         1134    .text               startup_stm32f401xe.o
    0x080005e0   0x00000020   Code   RO         2742    .text               mc_w.l(initio_oe.o)
    0x08000600   0x00000040   Code   RO         2750    .text               mc_w.l(memmovea.o)
    0x08000640   0x00000024   Code   RO         2752    .text               mc_w.l(memseta.o)
    0x08000664   0x0000000e   Code   RO         2756    .text               mc_w.l(strlen.o)
    0x08000672   0x0000001c   Code   RO         2758    .text               mc_w.l(strcmp.o)
    0x0800068e   0x0000001e   Code   RO         2760    .text               mc_w.l(strncmp.o)
    0x080006ac   0x00000038   Code   RO         3025    .text               mc_w.l(__0sscanf.o)
    0x080006e4   0x0000014c   Code   RO         3027    .text               mc_w.l(_scanf_int.o)
    0x08000830   0x00000020   Code   RO         3032    .text               mc_w.l(cpp_init.o)
    0x08000850   0x00000026   Code   RO         3034    .text               mf_w.l(f2d.o)
    0x08000876   0x00000028   Code   RO         3083    .text               mc_w.l(fputc_fp.o)
    0x0800089e   0x0000002c   Code   RO         3085    .text               mc_w.l(uidiv.o)
    0x080008ca   0x00000062   Code   RO         3087    .text               mc_w.l(uldiv.o)
    0x0800092c   0x0000001c   Code   RO         3117    .text               mc_w.l(_chval.o)
    0x08000948   0x00000028   Code   RO         3119    .text               mc_w.l(scanf_char.o)
    0x08000970   0x00000040   Code   RO         3121    .text               mc_w.l(_sgetc.o)
    0x080009b0   0x00000000   Code   RO         3123    .text               mc_w.l(iusefp.o)
    0x080009b0   0x0000014e   Code   RO         3132    .text               mf_w.l(dadd.o)
    0x08000afe   0x000000e4   Code   RO         3134    .text               mf_w.l(dmul.o)
    0x08000be2   0x000000de   Code   RO         3136    .text               mf_w.l(ddiv.o)
    0x08000cc0   0x00000030   Code   RO         3138    .text               mf_w.l(dfixul.o)
    0x08000cf0   0x00000030   Code   RO         3140    .text               mf_w.l(cdrcmple.o)
    0x08000d20   0x00000024   Code   RO         3168    .text               mc_w.l(init.o)
    0x08000d44   0x0000001e   Code   RO         3171    .text               mc_w.l(llshl.o)
    0x08000d62   0x00000020   Code   RO         3173    .text               mc_w.l(llushr.o)
    0x08000d82   0x00000024   Code   RO         3175    .text               mc_w.l(llsshr.o)
    0x08000da6   0x0000000a   Code   RO         3177    .text               mc_w.l(isspace_c.o)
    0x08000db0   0x0000032c   Code   RO         3185    .text               mc_w.l(_scanf.o)
    0x080010dc   0x000000ba   Code   RO         3188    .text               mf_w.l(depilogue.o)
    0x08001196   0x00000002   PAD
    0x08001198   0x00000028   Code   RO         3196    .text               mc_w.l(ctype_c.o)
    0x080011c0   0x00000012   Code   RO         1825    i.$Sub$$main        retarget.o
    0x080011d2   0x00000002   PAD
    0x080011d4   0x00000248   Code   RO         1626    i.HAL_GPIO_Init     stm32f4xx_hal_gpio.o
    0x0800141c   0x0000000c   Code   RO         1281    i.HAL_GetTick       stm32f4xx_hal.o
    0x08001428   0x000000fc   Code   RO          878    i.HAL_I2C_Init      stm32f4xx_hal_i2c.o
    0x08001524   0x00000002   Code   RO          897    i.HAL_I2C_MspInit   stm32f4xx_hal_i2c.o
    0x08001526   0x00000002   PAD
    0x08001528   0x00000010   Code   RO         1282    i.HAL_IncTick       stm32f4xx_hal.o
    0x08001538   0x00000034   Code   RO         1283    i.HAL_Init          stm32f4xx_hal.o
    0x0800156c   0x000000ac   Code   RO         1795    i.HAL_InitTick      hal_tick.o
    0x08001618   0x00000002   Code   RO         1286    i.HAL_MspInit       stm32f4xx_hal.o
    0x0800161a   0x00000002   PAD
    0x0800161c   0x00000024   Code   RO         2023    i.HAL_NVIC_SetPriorityGrouping  stm32f4xx_hal_cortex.o
    0x08001640   0x00000200   Code   RO          733    i.HAL_RCC_ClockConfig  stm32f4xx_hal_rcc.o
    0x08001840   0x000000c0   Code   RO          738    i.HAL_RCC_GetHCLKFreq  stm32f4xx_hal_rcc.o
    0x08001900   0x0000002c   Code   RO          740    i.HAL_RCC_GetPCLK1Freq  stm32f4xx_hal_rcc.o
    0x0800192c   0x0000002c   Code   RO          741    i.HAL_RCC_GetPCLK2Freq  stm32f4xx_hal_rcc.o
    0x08001958   0x000003ec   Code   RO          745    i.HAL_RCC_OscConfig  stm32f4xx_hal_rcc.o
    0x08001d44   0x0000002c   Code   RO         1672    i.HAL_TIMEx_PWMN_Start  stm32f4xx_hal_tim_ex.o
    0x08001d70   0x00000032   Code   RO         1393    i.HAL_TIM_OC_Init   stm32f4xx_hal_tim.o
    0x08001da2   0x00000002   Code   RO         1395    i.HAL_TIM_OC_MspInit  stm32f4xx_hal_tim.o
    0x08001da4   0x00000036   Code   RO         1396    i.HAL_TIM_OC_Start  stm32f4xx_hal_tim.o
    0x08001dda   0x00000002   PAD
    0x08001ddc   0x00000214   Code   RO         1412    i.HAL_TIM_PWM_ConfigChannel  stm32f4xx_hal_tim.o
    0x08001ff0   0x00000032   Code   RO         1415    i.HAL_TIM_PWM_Init  stm32f4xx_hal_tim.o
    0x08002022   0x00000002   Code   RO         1417    i.HAL_TIM_PWM_MspInit  stm32f4xx_hal_tim.o
    0x08002024   0x00000036   Code   RO         1419    i.HAL_TIM_PWM_Start  stm32f4xx_hal_tim.o
    0x0800205a   0x0000005e   Code   RO          618    i.HAL_UART_Init     stm32f4xx_hal_uart.o
    0x080020b8   0x00000002   Code   RO          620    i.HAL_UART_MspInit  stm32f4xx_hal_uart.o
    0x080020ba   0x00000002   PAD
    0x080020bc   0x0000006c   Code   RO         1734    i.NVIC_SetVector    cmsis_nvic.o
    0x08002128   0x0000007c   Code   RO         1608    i.SetSysClock_PLL_HSE  system_stm32f4xx.o
    0x080021a4   0x00000074   Code   RO         2534    i.Set_GPIO_Clock    mbed.ar(pinmap.o)
    0x08002218   0x00000084   Code   RO         1610    i.SystemCoreClockUpdate  system_stm32f4xx.o
    0x0800229c   0x00000100   Code   RO         1611    i.SystemInit        system_stm32f4xx.o
    0x0800239c   0x00000094   Code   RO         1429    i.TIM_Base_SetConfig  stm32f4xx_hal_tim.o
    0x08002430   0x00000218   Code   RO          636    i.UART_SetConfig    stm32f4xx_hal_uart.o
    0x08002648   0x00000048   Code   RO         2449    i._ZN4mbed3I2C4readEiPcib  mbed.ar(I2C.o)
    0x08002690   0x00000048   Code   RO         2453    i._ZN4mbed3I2C5writeEiPKcib  mbed.ar(I2C.o)
    0x080026d8   0x00000024   Code   RO         2456    i._ZN4mbed3I2CC1E7PinNameS1_  mbed.ar(I2C.o)
    0x080026fc   0x00000004   Code   RO         2561    i._ZN4mbed8FileBase11getPathTypeEv  mbed.ar(FileBase.o)
    0x08002700   0x00000038   Code   RO         2563    i._ZN4mbed8FileBase6lookupEPKcj  mbed.ar(FileBase.o)
    0x08002738   0x00000018   Code   RO         2363    i._ZN4mbed8FilePath10fileSystemEv  mbed.ar(FilePath.o)
    0x08002750   0x0000001c   Code   RO         2365    i._ZN4mbed8FilePath4fileEv  mbed.ar(FilePath.o)
    0x0800276c   0x0000000a   Code   RO         2366    i._ZN4mbed8FilePath6existsEv  mbed.ar(FilePath.o)
    0x08002776   0x00000018   Code   RO         2367    i._ZN4mbed8FilePath6isFileEv  mbed.ar(FilePath.o)
    0x0800278e   0x00000004   Code   RO         2368    i._ZN4mbed8FilePath8fileNameEv  mbed.ar(FilePath.o)
    0x08002792   0x00000040   Code   RO         2369    i._ZN4mbed8FilePathC1EPKc  mbed.ar(FilePath.o)
    0x080027d2   0x00000002   PAD
    0x080027d4   0x0000001c   Code   RO         2996    i.__0fprintf        mc_w.l(printfa.o)
    0x080027f0   0x00000020   Code   RO         2997    i.__0printf         mc_w.l(printfa.o)
    0x08002810   0x00000018   Code   RO         3000    i.__0vfprintf       mc_w.l(printfa.o)
    0x08002828   0x0000000e   Code   RO         3203    i.__scatterload_copy  mc_w.l(handlers.o)
    0x08002836   0x00000002   Code   RO         3204    i.__scatterload_null  mc_w.l(handlers.o)
    0x08002838   0x0000000e   Code   RO         3205    i.__scatterload_zeroinit  mc_w.l(handlers.o)
    0x08002846   0x00000018   Code   RO         2740    i._fflush$full      mc_w.l(fflush_f.o)
    0x0800285e   0x00000002   PAD
    0x08002860   0x00000164   Code   RO         3004    i._fp_digits        mc_w.l(printfa.o)
    0x080029c4   0x000006dc   Code   RO         3005    i._printf_core      mc_w.l(printfa.o)
    0x080030a0   0x00000024   Code   RO         3006    i._printf_post_padding  mc_w.l(printfa.o)
    0x080030c4   0x0000002e   Code   RO         3007    i._printf_pre_padding  mc_w.l(printfa.o)
    0x080030f2   0x00000002   PAD
    0x080030f4   0x000000e4   Code   RO         1833    i._sys_open         retarget.o
    0x080031d8   0x00000028   Code   RO         1835    i._sys_seek         retarget.o
    0x08003200   0x00000060   Code   RO         1836    i._sys_write        retarget.o
    0x08003260   0x00000018   Code   RO         2597    i.error             mbed.ar(error.o)
    0x08003278   0x00000020   Code   RO         2615    i.exit              mbed.ar(exit.o)
    0x08003298   0x00000070   Code   RO         2501    i.i2c_frequency     mbed.ar(i2c_api.o)
    0x08003308   0x000001dc   Code   RO         2502    i.i2c_init          mbed.ar(i2c_api.o)
    0x080034e4   0x0000012c   Code   RO         2503    i.i2c_read          mbed.ar(i2c_api.o)
    0x08003610   0x00000110   Code   RO         2512    i.i2c_write         mbed.ar(i2c_api.o)
    0x08003720   0x00000050   Code   RO         2591    i.mbed_assert_internal  mbed.ar(assert.o)
    0x08003770   0x00000010   Code   RO         1315    i.mbed_die          board.o
    0x08003780   0x00000002   Code   RO         1838    i.mbed_main         retarget.o
    0x08003782   0x0000000e   Code   RO          970    i.mbed_sdk_init     mbed_overrides.o
    0x08003790   0x0000006c   Code   RO         2535    i.pin_function      mbed.ar(pinmap.o)
    0x080037fc   0x00000058   Code   RO         2536    i.pin_mode          mbed.ar(pinmap.o)
    0x08003854   0x00000038   Code   RO         2604    i.pinmap_merge      mbed.ar(pinmap_common.o)
    0x0800388c   0x0000005c   Code   RO         2605    i.pinmap_peripheral  mbed.ar(pinmap_common.o)
    0x080038e8   0x00000058   Code   RO         2606    i.pinmap_pinout     mbed.ar(pinmap_common.o)
    0x08003940   0x000000f4   Code   RO         2297    i.pwmout_init       mbed.ar(pwmout_api.o)
    0x08003a34   0x0000000a   Code   RO         2299    i.pwmout_period_ms  mbed.ar(pwmout_api.o)
    0x08003a3e   0x00000002   PAD
    0x08003a40   0x000000a8   Code   RO         2300    i.pwmout_period_us  mbed.ar(pwmout_api.o)
    0x08003ae8   0x0000001e   Code   RO         2302    i.pwmout_pulsewidth_ms  mbed.ar(pwmout_api.o)
    0x08003b06   0x00000002   PAD
    0x08003b08   0x000000d8   Code   RO         2305    i.pwmout_write      mbed.ar(pwmout_api.o)
    0x08003be0   0x00000168   Code   RO         2329    i.serial_init       mbed.ar(serial_api.o)
    0x08003d48   0x00000024   Code   RO         2333    i.serial_putc       mbed.ar(serial_api.o)
    0x08003d6c   0x00000054   Code   RO         1796    i.timer_irq_handler  hal_tick.o
    0x08003dc0   0x00000010   Code   RO         2545    i.us_ticker_clear_interrupt  mbed.ar(us_ticker.o)
    0x08003dd0   0x00000014   Code   RO         2546    i.us_ticker_disable_interrupt  mbed.ar(us_ticker.o)
    0x08003de4   0x00000054   Code   RO         2481    i.us_ticker_irq_handler  mbed.ar(us_ticker_api.o)
    0x08003e38   0x00000030   Code   RO         2548    i.us_ticker_read    mbed.ar(us_ticker.o)
    0x08003e68   0x00000014   Code   RO         2549    i.us_ticker_set_interrupt  mbed.ar(us_ticker.o)
    0x08003e7c   0x0000001c   Code   RO         2492    i.wait_ms           mbed.ar(wait_api.o)
    0x08003e98   0x00000010   Data   RO          746    .constdata          stm32f4xx_hal_rcc.o
    0x08003ea8   0x00000010   Data   RO         1612    .constdata          system_stm32f4xx.o
    0x08003eb8   0x00000168   Data   RO         2307    .constdata          mbed.ar(pwmout_api.o)
    0x08004020   0x000000fe   Data   RO         2340    .constdata          mbed.ar(serial_api.o)
    0x0800411e   0x00000002   PAD
    0x08004120   0x0000010c   Data   RO         2514    .constdata          mbed.ar(i2c_api.o)
    0x0800422c   0x000000c4   Data   RO         2537    .constdata          mbed.ar(pinmap.o)
    0x080042f0   0x00000040   Data   RO         3197    .constdata          mc_w.l(ctype_c.o)
    0x08004330   0x00000020   Data   RO         3201    Region$$Table       anon$$obj.o
    0x08004350   0x00000004   Data   RO            7    .init_array         main.o
    0x08004354   0x00000000   Data   RO         3030    .init_array         mc_w.l(cpp_init.o)


    Execution Region RW_IRAM1 (Base: 0x20000194, Size: 0x00000248, Max: 0x00017e6c, ABSOLUTE)

    Base Addr    Size         Type   Attr      Idx    E Section Name        Object

    0x20000194   0x00000020   Data   RW            6    .data               main.o
    0x200001b4   0x00000004   Data   RW         1289    .data               stm32f4xx_hal.o
    0x200001b8   0x00000004   Data   RW         1613    .data               system_stm32f4xx.o
    0x200001bc   0x00000004   Data   RW         1798    .data               hal_tick.o
    0x200001c0   0x00000004   Data   RW         1879    .data               retarget.o
    0x200001c4   0x00000008   Data   RW         2341    .data               mbed.ar(serial_api.o)
    0x200001cc   0x00000004   Data   RW         2466    .data               mbed.ar(I2C.o)
    0x200001d0   0x00000008   Data   RW         2484    .data               mbed.ar(us_ticker_api.o)
    0x200001d8   0x0000000c   Data   RW         2515    .data               mbed.ar(i2c_api.o)
    0x200001e4   0x00000004   Data   RW         2551    .data               mbed.ar(us_ticker.o)
    0x200001e8   0x00000004   Data   RW         2575    .data               mbed.ar(FileBase.o)
    0x200001ec   0x00000038   Zero   RW            5    .bss                main.o
    0x20000224   0x0000003c   Zero   RW         1797    .bss                hal_tick.o
    0x20000260   0x00000040   Zero   RW         1875    .bss                retarget.o
    0x200002a0   0x0000003c   Zero   RW         2306    .bss                mbed.ar(pwmout_api.o)
    0x200002dc   0x00000064   Zero   RW         2339    .bss                mbed.ar(serial_api.o)
    0x20000340   0x00000038   Zero   RW         2513    .bss                mbed.ar(i2c_api.o)
    0x20000378   0x0000003c   Zero   RW         2550    .bss                mbed.ar(us_ticker.o)
    0x200003b4   0x00000014   Zero   RW         2748    .bss                mc_w.l(stdout_f.o)
    0x200003c8   0x00000014   Zero   RW         2749    .bss                mc_w.l(stderr_f.o)


==============================================================================

Image component sizes


      Code (inc. data)   RO Data    RW Data    ZI Data      Debug   Object Name

        16          0          0          0          0        120   board.o
       108          6          0          0          0        132   cmsis_nvic.o
       256         46          0          4         60        252   hal_tick.o
      1036         66          4         32         56     152505   main.o
        14          0          0          0          0        128   mbed_overrides.o
       384         34          0          4         64        640   retarget.o
        36          8        404          0          0        276   startup_stm32f401xe.o
        82         16          0          4          0        472   stm32f4xx_hal.o
        36          6          0          0          0        116   stm32f4xx_hal_cortex.o
       584         24          0          0          0        140   stm32f4xx_hal_gpio.o
       254          8          0          0          0        240   stm32f4xx_hal_i2c.o
      1796         92         16          0          0        656   stm32f4xx_hal_rcc.o
       892         22          0          0          0        980   stm32f4xx_hal_tim.o
        44          0          0          0          0        116   stm32f4xx_hal_tim_ex.o
       632         14          0          0          0        372   stm32f4xx_hal_uart.o
       512         74         16          4          0        400   system_stm32f4xx.o

    ----------------------------------------------------------------------
      6692        416        472         48        180     157545   Object Totals
         0          0         32          0          0          0   (incl. Generated)
        10          0          0          0          0          0   (incl. Padding)

    ----------------------------------------------------------------------

      Code (inc. data)   RO Data    RW Data    ZI Data      Debug   Library Member Name

        60          6          0          4          0        244   FileBase.o
       154          0          0          0          0        728   FilePath.o
       180         16          0          4          0        396   I2C.o
        80         56          0          0          0        128   assert.o
        24          4          0          0          0        128   error.o
        32          8          0          0          0        120   exit.o
      1160         92        268         12         56        604   i2c_api.o
       312         94        196          0          0        388   pinmap.o
       236         78          0          0          0        384   pinmap_common.o
       668        122        360          0         60        656   pwmout_api.o
       396         70        254          8        100        252   serial_api.o
       104         32          0          4         60        472   us_ticker.o
        84          6          0          8          0        144   us_ticker_api.o
        28          0          0          0          0        128   wait_api.o
        56          8          0          0          0         84   __0sscanf.o
        28          0          0          0          0         68   _chval.o
       812          4          0          0          0        112   _scanf.o
       332          0          0          0          0         96   _scanf_int.o
        64          0          0          0          0         84   _sgetc.o
        32         10          0          0          0         80   cpp_init.o
        40          6         64          0          0         68   ctype_c.o
         0          0          0          0          0          0   entry.o
         0          0          0          0          0          0   entry10a.o
         0          0          0          0          0          0   entry11a.o
         8          4          0          0          0          0   entry2.o
         4          0          0          0          0          0   entry5.o
         4          0          0          0          0          0   entry6b.o
         0          0          0          0          0          0   entry7b.o
         4          0          0          0          0          0   entry8a.o
         0          0          0          0          0          0   entry8b.o
         8          4          0          0          0          0   entry9a.o
        24          0          0          0          0         76   fflush_f.o
        40          0          0          0          0         80   fputc_fp.o
        30          0          0          0          0          0   handlers.o
        36          8          0          0          0         68   init.o
        32         12          0          0          0         72   initio_oe.o
        10          0          0          0          0         68   isspace_c.o
         0          0          0          0          0          0   iusefp.o
        30          0          0          0          0         68   llshl.o
        36          0          0          0          0         68   llsshr.o
        32          0          0          0          0         68   llushr.o
        64          0          0          0          0         76   memmovea.o
        36          0          0          0          0        108   memseta.o
      2278        100          0          0          0        608   printfa.o
        40          8          0          0          0         84   scanf_char.o
         0          0          0          0         20          0   stderr_f.o
         0          0          0          0         20          0   stdout_f.o
        28          0          0          0          0         76   strcmp.o
        14          0          0          0          0         68   strlen.o
        30          0          0          0          0         80   strncmp.o
        44          0          0          0          0         80   uidiv.o
        98          0          0          0          0         92   uldiv.o
        48          0          0          0          0         68   cdrcmple.o
       334          0          0          0          0        148   dadd.o
       222          0          0          0          0        100   ddiv.o
       186          0          0          0          0        176   depilogue.o
        48          0          0          0          0         68   dfixul.o
       228          0          0          0          0         96   dmul.o
        38          0          0          0          0         68   f2d.o

    ----------------------------------------------------------------------
      8928        748       1144         40        316       7928   Library Totals
        12          0          2          0          0          0   (incl. Padding)

    ----------------------------------------------------------------------

      Code (inc. data)   RO Data    RW Data    ZI Data      Debug   Library Name

      3518        584       1078         40        276       4772   mbed.ar
      4294        164         64          0         40       2432   mc_w.l
      1104          0          0          0          0        724   mf_w.l

    ----------------------------------------------------------------------
      8928        748       1144         40        316       7928   Library Totals

    ----------------------------------------------------------------------

==============================================================================


      Code (inc. data)   RO Data    RW Data    ZI Data      Debug   

     15620       1164       1616         88        496     156809   Grand Totals
     15620       1164       1616         88        496     156809   ELF Image Totals
     15620       1164       1616         88          0          0   ROM Totals

==============================================================================

    Total RO  Size (Code + RO Data)                17236 (  16.83kB)
    Total RW  Size (RW Data + ZI Data)               584 (   0.57kB)
    Total ROM Size (Code + RO Data + RW Data)      17324 (  16.92kB)

==============================================================================

